:100000000A128A11F32F7208710470040319080090
:100010008030F20608008E30FC007C08FD00FF30C6
:100020007B050319212801300310FB0CFA0CF90C95
:10003000F80CFF3E031D14280130FC007C08FD076E
:100040000F287808F0007908F1007A08F2007D089E
:10005000FC007C08F300F4010A168A154724700896
:10006000F8007108F9007208FA00080083160313FB
:10007000BB00643083120313E70067088316031381
:10008000AF00013083120313E307FF3063078400DE
:100090000A168A1100200A128A11E70067088316DF
:1000A0000313C100C1080319EE2F4108253A0319B3
:1000B0006D28410883120313E700831603133B08DE
:1000C0008400831203136708831380000130E70064
:1000D000670883160313BB074128B001B1018312DF
:1000E0000313630884000A168A1100200A128A1179
:1000F0002E3A031DCD2883160313311701308312C6
:100100000313E7006708E30783160313BC01BD016F
:100110008312630884000A168A1100200A128A11C9
:100120000A168A1517210A128A11031CD52883166C
:1001300003133D08F101F1073C08F001F0070A3014
:10014000F2000030F3000A168A15C9210A128A113A
:1001500083120313630884000A168A1100200A120E
:100160008A117007E7000030031801307107E800BA
:100170006708D03E83160313BC008312031368087C
:100180000318013EFF3E83160313BD0001308312A6
:100190000313E7006708E307882883160313BC01ED
:1001A000BD013116D5283115F12801308312031312
:1001B000E307FF30630784000A168A1100200A1241
:1001C0008A1183160313C100003A0319EE2F643A13
:1001D0000319F128023A0319D3280F3A0319F12819
:1001E00041280030300583120313E70007308316DF
:1001F0000313310583120313E80068086704031929
:100200007C2E83160313311E09290630BC000030F2
:10021000BD002F08840083130008BE00840A000874
:10022000BF00840A0008C000033083120313E700F4
:10023000670883160313AF073E08F0003F08F1007C
:100240004008F2000030F3000030F4000030F50008
:100250000A168A152F230A128A11031848298316B1
:1002600003133E08F0003F08F1004008F2000A12B4
:100270008A1103200A128A11700883160313BE0024
:100280007108BF007208C0000330B0040030B10430
:1002900083160313B501B60140083F043E04031959
:1002A000442ABE3084008313000883120313E7003E
:1002B000840A0008E800840A0008E900840A0008AB
:1002C000EA000F300310EA0CE90CE80CE70CFF3EE3
:1002D000031D6229FF306705EB0000306805EC0064
:1002E0006B08823E83160313B500831203136C0858
:1002F0000318013EFF3E83160313B600FF30B50717
:100300000318B60AFF30B6070330F0000030F100E2
:100310003608F301F3073508F201F2070A168A15C9
:10032000C9210A128A11710883160313B601B60790
:100330007008B501B5070A30F7000030F80036083C
:10034000FA01FA073508F901F9070A168A158C230C
:100350000A128A11780883160313B601B6077708C4
:10036000B501B507B61FBA29FF30B5070318B60A9D
:10037000FF30B6073503FF3A0A128A1561250A12C3
:100380008A1183120313400883160313B2008312E9
:100390000313410883160313B300831203134208A7
:1003A00083160313B4003E0883120313B0008316B0
:1003B00003133F0883120313B1008316031340088D
:1003C00083120313B200831603133208831203133C
:1003D000B30083160313330883120313B400831688
:1003E0000313340883120313B5000A168A111B2362
:1003F0000A128A1183120313300883160313B20002
:1004000083120313310883160313B30083120313FB
:10041000320883160313B4003208F0003308F100E9
:100420003408F2000030F3008030F4003F30F50073
:100430000A168A152F230A128A110318272AFF3059
:1004400083160313B5070318B60AFF30432A831631
:1004500003133208F0003308F1003408F2000030D2
:10046000F3002030F4004130F5000A168A152F23DE
:100470000A128A11031C442A013083160313B5079C
:100480000318B60A0030B607831603133D08803AF6
:10049000FF0080307F02031D4F2A0D303C020318FD
:1004A0008A2A831603133C080A168A1164260A1244
:1004B0008A11831203134008D0004108D10042087A
:1004C000D200831603133E0883120313D30083164E
:1004D00003133F0883120313D40083160313400849
:1004E00083120313D5000A128A1528200A128A11D2
:1004F00083120313500883160313BE0083120313E1
:10050000510883160313BF00831203135208831686
:100510000313C000831603133608803AFF008030AF
:100520007F02031D952A0A3035020318C82A831654
:10053000031340083F043E040319292B3E0883128D
:100540000313C900831603133F0883120313CA0061
:1005500083160313400883120313CB000A168A156F
:10056000AB250A128A11831203134C084B044A0468
:100570004904031D292B831603133608803AFF0014
:1005800080307F02031DC62A02303502031C292B4E
:10059000831603133208F0003308F1003408F20028
:1005A0007030F3008930F4004030F5000A168A15E7
:1005B0002F230A128A110318DF2AF730E02AF830B5
:1005C00083160313B5070318B60AFF30B6073508BC
:1005D0000A128A1561250A128A1183120313400830
:1005E00083160313B2008312031341088316031307
:1005F000B30083120313420883160313B4003E08AA
:10060000F0003F08F1004008F2003208F300330820
:10061000F4003408F5000A168A1188210A128A119A
:10062000730883160313A6007208A5007108A400BE
:100630007008A3002608BA002508B9002408B800ED
:100640002308B7000030BE000030BF000030C000FB
:10065000982B831603133E0883120313C9008316D5
:1006600003133F0883120313CA00831603134008C1
:1006700083120313CB000A168A15AB250A128A11BE
:10068000831203134C0883160313BA008312031357
:100690004B0883160313B900831203134A08831609
:1006A0000313B80083120313490883160313B7001A
:1006B0003A08FB003908FA003808F9003708F80052
:1006C0000A128A110B200A128A1178088312031366
:1006D000DD007908DE007A08DF00831603133E0888
:1006E00083120313E000831603133F0883120313DE
:1006F000E10083160313400883120313E2000A1675
:100700008A156C210A128A11831203135D0883165D
:100710000313BE00831203135E0883160313BF0086
:10072000831203135F0883160313C000B501B601DB
:10073000C101C10A41080A3A0319EE2B410883128C
:100740000313E70001300310E70DFF3E031DA32B49
:100750000310670D013E84000A168A1100200A1258
:100760008A11E8000A168A1100200A128A11E9008B
:100770000A168A1100200A128A11EA000A168A1142
:1007800000200A128A11EB006B08831603133A0249
:10079000031DE02B831203136A0883160313390227
:1007A000031DE02B83120313690883160313380219
:1007B000031DE02B8312031368088316031337020B
:1007C000031CEE2B013083120313E7006708831626
:1007D0000313C10741080A3A031D9E2B033030055D
:1007E00083120313E70000308316031331058312CD
:1007F0000313E8006808670403190F2C2D30E70085
:10080000831603133B0884008312031367088313C2
:1008100080000130E700670883160313BB07FF3031
:100820008312E700670883160313C1074108FF3AE4
:100830000319B62C410883120313E700013003109B
:10084000E70DFF3E031D1F2C0310670D013E8400C2
:100850000A168A1100200A128A11F0000A168A115B
:1008600000200A128A11F1000A168A1100200A12C9
:100870008A11F2000A168A1100200A128A11F30066
:10088000831603133A08F7003908F6003808F50014
:100890003708F4000A168A15E9230A128A11730828
:1008A00083160313AA007208A9007108A800700833
:1008B000A700003083120313A3000030A200003011
:1008C000A1000A30A000831603132A088312031321
:1008D000A70083160313290883120313A6008316A7
:1008E0000313280883120313A50083160313270894
:1008F00083120313A4000A168A15E1220A128A1130
:1009000083120313230883160313AA00831203130D
:10091000220883160313A9008312031321088316E8
:100920000313A80083120313200883160313A700E0
:100930002708303E83120313FF2B3030831203133A
:10094000E700831603133B08840083120313670830
:10095000831380000130E700670883160313BB0789
:10096000FF30B5070318B60AFF30B6073608803ADD
:10097000FF0080307F02031DBF2C013035020318B9
:100980009D2C831603133D08803AFF0080307F02C0
:10099000031DCC2C09303C02031CD02C0830D32C76
:1009A000831603133C0883120313E70067088316BA
:1009B0000313C100410883120313E700E801E71B9A
:1009C000E803670883160313BC0283120313680845
:1009D00083160313031CBD03BD0241080319032D35
:1009E0002E3083120313E700831603133B088400A1
:1009F000831203136708831380000130E700670840
:100A000083160313BB0741080A128A1561250A12CF
:100A10008A1183120313400883160313A000831264
:100A20000313410883160313A10083120313420822
:100A300083160313A200200883120313B300831646
:100A40000313210883120313B4008316031322082F
:100A500083120313B500831603133E088312031396
:100A6000B000831603133F0883120313B1008316EB
:100A70000313400883120313B2000A168A111B23C2
:100A80000A128A11831203133008C9003108CA0000
:100A90003208CB000A168A15AB250A128A11831276
:100AA00003134C0883160313BA00831203134B0875
:100AB00083160313B900831203134A088316031322
:100AC000B80083120313490883160313B700FF30DD
:100AD00083120313E700670883160313C107410855
:100AE000FF3A0319772E410883120313E700013000
:100AF0000310E70DFF3E031D782D0310670D013E27
:100B000084000A168A1100200A128A11F0000A16BF
:100B10008A1100200A128A11F1000A168A11002097
:100B20000A128A11F2000A168A1100200A128A118A
:100B3000F300831603133A08F7003908F600380863
:100B4000F5003708F4000A168A15E9230A128A11FB
:100B5000730883160313AE007208AD007108AC0071
:100B60007008AB00003083120313A3000030A20012
:100B70000030A1000A30A000831603132E08831250
:100B80000313A700831603132D0883120313A60073
:100B9000831603132C0883120313A5008316031373
:100BA0002B0883120313A4000A168A15E1220A12E5
:100BB0008A1183120313230883160313AE008312D2
:100BC0000313220883160313AD00831203132108B5
:100BD00083160313AC008312031320088316031338
:100BE000AB002B08303E83120313E7008316031378
:100BF0003B088400831203136708831380000130CD
:100C0000E700670883160313BB0741088312031329
:100C1000E70001300310E70DFF3E031D0A2E03100D
:100C2000670D013E84000A168A1100200A128A11FB
:100C3000A0000A168A1100200A128A11A1000A16C1
:100C40008A1100200A128A11A2000A168A110020B5
:100C50000A128A11A300831603133A08831203139E
:100C6000A70083160313390883120313A600831603
:100C70000313380883120313A500831603133708E0
:100C800083120313A4000A168A15E1220A128A119C
:100C900083120313230883160313BA00831203136A
:100CA000220883160313B900831203132108831645
:100CB0000313B800831203132008642D303083120D
:100CC0000313E700831603133B0884008312031306
:100CD0006708831380000130E70067088316031359
:100CE000BB07FF30BC070318BD0AFF30BD073D0836
:100CF0003C04031941285E2E831603132F08840039
:100D00008313000883120313E700840A0008E80035
:100D1000670883160313B70083120313680883164A
:100D20000313B8000030B81BFF30B900BA0002301E
:100D300083120313E700670883160313AF07BA1F74
:100D4000B02E0330B0040030B104B709B809B909B6
:100D5000BA09B70A0319B80A0319B90A0319BA0A72
:100D60003D083C04031DC02E3A08390438043704FA
:100D7000031DC02E0130BC070318BD0A0030BD079B
:100D8000C101C10A41080A3A0319162F410883120A
:100D90000313E70001300310E70DFF3E031DCB2EC8
:100DA0000310670D013E84000A168A1100200A1202
:100DB0008A11E8000A168A1100200A128A11E90035
:100DC0000A168A1100200A128A11EA000A168A11EC
:100DD00000200A128A11EB006B08831603133A02F3
:100DE000031D082F831203136A08831603133902A5
:100DF000031D082F83120313690883160313380297
:100E0000031D082F83120313680883160313370288
:100E1000031C162F013083120313E70067088316A3
:100E20000313C10741080A3A031DC62E4108831265
:100E30000313E700E801E71BE8036808803AE900CC
:100E4000831603133D08803A831203136902031DBE
:100E50002F2F831603133C08831203136702031812
:100E60003C2F831603133C0883120313E700670823
:100E700083160313C1005E2F8316031341088312E8
:100E80000313E700E801E71BE803831603133D089B
:100E9000803A83120313E9006808803A6902031D4F
:100EA000552F6708831603133C0203185E2F831621
:100EB00003134108BC00BD01BC1BBD0303308316F6
:100EC0000313300583120313E70000308316031366
:100ED000310583120313E800680867040319812FA2
:100EE0002D30E700831603133B088400831203139D
:100EF0006708831380000130E70067088316031337
:100F0000BB07FF3083160313BC070318BD0AFF306D
:100F1000BD07FF303D06031D8F2FFF303C06031930
:100F20004128003083120313A3000030A2000030D8
:100F3000A1000A30A000831603133C088312031398
:100F4000E70001300310E70DFF3E031DA22F031041
:100F5000670D013E84000A168A1100200A128A11C8
:100F6000F0000A168A1100200A128A11F1000A16EE
:100F70008A1100200A128A11F2000A168A11002032
:100F80000A128A11F300831603133A08F70039088E
:100F9000F6003808F5003708F4000A168A15E92328
:100FA0000A128A11730883120313A7007208A6009D
:100FB0007108A5007008A4000A168A15E1220A1219
:100FC0008A11831203132008303EE8006808831654
:100FD0000313C100410883120313712F3B088400DF
:100FE00083138001080083160313DE01DF01E00193
:100FF000E101E201E301E40183010A128A15FD2AFD
:101000007108F301F3077008F201F2077308720424
:1010100003191428FF30F2070318F30AFF30F3070F
:1010200073087204031D0A28F401F5017508803A5B
:10103000FF0093307F02031D1F28883074020318BD
:1010400008000130F4070318F50A0030F5071628E8
:10105000831203135008D6005108D7005208D80055
:101060000310570D580DD9005908DC005308D6005D
:101070005408D7005508D8000310570D580DD90053
:101080005908DB005C08031951285B085C0203184F
:1010900058285C03FF3A5B07D60019305602031C40
:1010A00058285308D0005408D1005508D200080031
:1010B0005B08031908005C085B02031867285B03E0
:1010C000FF3A5C07D60019305602031808000630B4
:1010D000D6005608DA00D21BDA17D51B5A17D117DB
:1010E000FF30D005FF30D1050030D205D417FF30D6
:1010F000D305FF30D4050030D5055B085C0203182A
:10110000A72801300310D30DD40DD50DFF3E031DCC
:1011100082280130DB025B085C060319A22801303B
:10112000DA025A0807390319A2288128013003106E
:10113000D20CD10CD00CFF3E031D97280130D600F5
:101140005608DC075C085B060319D02896285C0863
:101150005B020318D02801300310D00DD10DD20D41
:10116000FF3E031DAC280130DC025B085C0603195E
:10117000CC280130DA025A0807390319CC28AB28E9
:1011800001300310D50CD40CD30CFF3E031DC12835
:101190000130D6005608DB075C085B06031DC0283B
:1011A000DA1FE228FF30D006FF30D106FF30D2062A
:1011B0000130D007003003180130D1070030031888
:1011C0000130D2075A1FF428FF30D306FF30D4066F
:1011D000FF30D5060130D307003003180130D407A3
:1011E000003003180130D507DA015008D307510841
:1011F00003110318510A031DD407520803110318E1
:10120000520A031DD507D51F1729FF30D306FF301B
:10121000D406FF30D5060130D30700300318013063
:10122000D407003003180130D507DA01DA0A530871
:10123000F0005408F1005508F2005C08D60056088A
:10124000F3005A08D7005708F4000A168A154724F5
:10125000700883120313D0007108D1007208D20005
:10126000080083160313250824042304031D3F29C3
:101270000030A3008030A4003F30A5000800723089
:10128000F0003130F1004430F2002308F30024086C
:10129000F4002508F5000A168A152F230A128A156C
:1012A00003185F29223083160313E3000030E400A3
:1012B000FF30A3007F30A4007F30A5000800831614
:1012C00003132308F0002408F1002508F200493038
:1012D000F3003A30F400C430F5000A168A152F23C3
:1012E0000A128A1503188129223083160313E3009A
:1012F0000030E4000030A3000030A4000030A5005E
:101300000800831603132308F0002408F1002508C1
:10131000F2000030F3000030F4000030F5000A164F
:101320008A152F230A128A150030031C01308312FC
:101330000313EE006E0883160313AE002E08031984
:10134000B4292308F0002408F1002508F2000A124D
:101350008A1103200A128A15700883160313A3004A
:101360007108A4007208A500AA3083120313B0000C
:10137000B830B1003F30B200831603132308831244
:101380000313B30083160313240883120313B4005A
:1013900083160313250883120313B5000A168A1156
:1013A0001B230A128A1583120313300883160313B2
:1013B000A30083120313310883160313A4008312BE
:1013C0000313320883160313A500230883120313A3
:1013D000DF0083160313240883120313E00083162F
:1013E0000313250883120313E1000A168A15CE267B
:1013F0000A128A15831203135F0883160313A600CB
:1014000083120313600883160313A70083120313C8
:10141000610883160313A800260883120313C9006A
:1014200083160313270883120313CA0083160313BA
:10143000280883120313CB000A168A15AB250A125B
:101440008A15831203134A0883160313AD01AD07EF
:1014500083120313490883160313AC01AC072D084C
:10146000F901F9072C08F801F8070A168A15A821CE
:101470000A128A15780883120313DD007908DE004A
:101480007A08DF0083160313230883120313E00096
:1014900083160313240883120313E1008316031336
:1014A000250883120313E2000A168A156C210A121A
:1014B0008A15831203135D0883160313A300831296
:1014C00003135E0883160313A400831203135F083B
:1014D00083160313A500230883120313DD0083166C
:1014E0000313240883120313DE0083160313250855
:1014F00083120313DF007730EE006E08E00009303E
:10150000E1000030E2000A168A15AF240A128A159B
:10151000831203135D08E7005E08E8005F08E90036
:10152000831603132D0883120313EB01EB078316B5
:1015300003132C0883120313EA01EA070A168A151B
:1015400067270A128A158312031367088316031389
:10155000A30083120313680883160313A4008312E5
:101560000313690883160313A5002E080319080046
:10157000FF30A9007F30AA007F30AB0025082B0682
:10158000031DC82A24082A06031DC82A2308290681
:10159000031DD12A0030A3000030A4000030A500B4
:1015A0000800230883120313A000831603132408E2
:1015B00083120313A1008316031325088312031358
:1015C000A2000030A3008030A4003F30A5000A161E
:1015D0008A11D02083120313200883160313A3005B
:1015E00083120313210883160313A4008312031329
:1015F000220883160313A500080000308316031386
:10160000B2006030B3004130B4000030AF000030B1
:10161000B0004030B1000A168A1120250A128A153E
:10162000831603132F08D4003008D5003108D600E4
:10163000540883120313C900831603135508831239
:101640000313CA0083160313560883120313CB0037
:101650000A168A15AB250A128A15831203134A0843
:1016600083160313D801D80783120313490883167E
:101670000313D701D707D901DA01DB01DC01DD0152
:101680008601880183120313860188010A168A15D0
:1016900025210A128A150A168A1588210A128A1526
:1016A0000A168A15F8200A128A1580300A168A1539
:1016B0000E210A128A15E5300A168A150E210A1221
:1016C0008A150A168A15F1200A128A1581300A161F
:1016D0008A150E210A128A1501300A168A15EC2184
:1016E0000A128A1583160313CC00CD014C08D900C9
:1016F0004D08DA0000300A168A15EC210A128A1504
:1017000083160313CC004C08DD000A168A15FF204F
:101710000A128A15C830F0000030F1000A128A154A
:1017200000200A128A15831603135A08CD0059089F
:10173000CC000630FF000310CC0DCD0DFF0B9B2B12
:101740004C08D9004D08DA005D08CC0002300310C7
:10175000CC0CFF3E031DA72B4C08CD004D08DD002F
:1017600059085D04D9005A08DA00003083120313C7
:10177000D000C030D100C030D2000030B000FA300C
:10178000B1004230B200831603135808F901F9077B
:101790005708F801F8070A168A15A8210A128A15AF
:1017A000780883120313A0007908A1007A08A20028
:1017B000831603135A08F901F9075908F801F807C5
:1017C0000A168A1558210A128A15780883120313FB
:1017D000A3007908A4007A08A5000A168A11D0206F
:1017E0000A128A15831203132008B3002108B400DB
:1017F0002208B5000A168A111B230A128A158312C1
:1018000003133008D3003108D4003208D5000A127F
:101810008A1528200A128A1583120313500883168A
:101820000313CE0083120313510883160313CF0052
:1018300083120313520883160313D0004E08831239
:101840000313C900831603134F0883120313CA003E
:1018500083160313500883120313CB000A168A154C
:10186000AB250A128A15831203134A088316031341
:10187000E201E20783120313490883160313E1010F
:10188000E1070A168A15F8200A128A1580300A160E
:101890008A150E210A128A15E3300A168A150E21BE
:1018A0000A128A150A168A15FF200A128A15C830EC
:1018B000F0000030F1000A128A1500200A128A1581
:1018C00083160313DD010A168A15F8200A128A15F9
:1018D00080300A168A150E210A128A15E3300A167C
:1018E0008A150E210A128A150A168A15F1200A1283
:1018F0008A1581300A168A150E210A128A150130BE
:101900000A168A15EC210A128A1583160313CC00D5
:10191000CD014C08DB004D08DC0000300A168A15AA
:10192000EC210A128A1583160313CC004C08DD0043
:101930000A168A15FF200A128A15C830F0000030F6
:10194000F1000A128A1500200A128A158316031361
:101950005C08CD005B08CC000630FF000310CC0D06
:10196000CD0DFF0BAE2C4C08DB004D08DC005D08F4
:10197000CC0002300310CC0CFF3E031DBA2C4C08E7
:10198000CD004D08DD005B085D04DB005C08DC0079
:10199000663083120313D0003B30D100C230D20036
:1019A000B830B0002F30B1004330B20083160313BB
:1019B0005808F901F9075708F801F8070A168A15B7
:1019C000A8210A128A15780883120313A000790847
:1019D000A1007A08A200831603135C08F901F90735
:1019E0005B08F801F8070A168A1558210A128A15A9
:1019F000780883120313A3007908A4007A08A500CD
:101A00000A168A11D0200A128A158312031320089D
:101A1000B3002108B4002208B5000A168A111B235E
:101A20000A128A15831203133008D3003108D40038
:101A30003208D5000A128A1528200A128A15831244
:101A40000313500883160313D100831203135108A4
:101A500083160313D2008312031352088316031351
:101A6000D3005108DE005208DF005308E0000A16D8
:101A70008A15F8200A128A1580300A168A150E2156
:101A80000A128A15E5300A168A150E210A128A15DD
:101A90000A168A15FF200A128A15C830F000003095
:101AA000F1000A128A1500200A128A150A168A15F0
:101AB00028250A128A150A168A1539260A128A1545
:101AC0004B2B83120313C800C81FB42EC809C80AC1
:101AD0004808803A123E031C272E0330C3004308F7
:101AE000A4000A30F7000030F8004808F200F301C3
:101AF000F21BF3036430F0000030F1000A168A157F
:101B000094220A128A157108FA01FA077008F9017D
:101B1000F9070A168A158C230A128A157708093ED6
:101B20000A168A11BD200A128A15293E84000A1657
:101B30008A1100200A128A1583120313B0000A16B4
:101B40008A1100200A128A15B1000A168A11002093
:101B50000A128A15B2000330C4004408A40064309D
:101B6000F7000030F8004808F900FA01F91BFA0301
:101B70000A168A158C230A128A157708123E0A164D
:101B80008A11BD200A128A15293E84000A168A117C
:101B900000200A128A1583120313B3000A168A1151
:101BA00000200A128A15B4000A168A1100200A12AF
:101BB0008A15B5000A168A111B230A128A15831288
:101BC00003133008C5003108C6003208C7000330CF
:101BD000C3004308A4004808F200F301F21BF3031A
:101BE0000A30F0000030F1000A168A1594220A1219
:101BF0008A1570080A168A11BD200A128A15293E14
:101C000084000A168A1100200A128A15831203130F
:101C1000B0000A168A1100200A128A15B1000A16AD
:101C20008A1100200A128A15B2004508B30046083E
:101C3000B4004708B5000A168A111B238312031348
:101C40003008C0003108C1003208C200080048084E
:101C5000803A753E031C952E0330C3004308A40050
:101C60004808F200F301F21BF3030A30F0000030E1
:101C7000F1000A168A1594220A128A1570080A16AB
:101C80008A11BD200A128A15293E84000A168A117B
:101C900000200A128A1583120313B0000A168A1153
:101CA00000200A128A15B1000A168A1100200A12B1
:101CB0008A15B2000330C4004408A4000A30F700BB
:101CC0000030F8004808F900FA01F91BFA030A1677
:101CD0008A158C230A128A157708093E0A168A117A
:101CE000BD200A128A15293E84000A168A11002096
:101CF0000A128A1583120313B3000A168A110020F0
:101D00000A128A15B4000A168A1100200A128A15CE
:101D1000B5000A168A111B23831203133008C00072
:101D20003108C1003208C20008000330C300430874
:101D3000A40048080A168A11BD200A128A15293EF5
:101D400084000A168A1100200A128A1583120313CE
:101D5000C0000A168A1100200A128A15C1000A164C
:101D60008A110020C20008004808803A123E031C75
:101D7000732F0330C3004308A4000A30F70000307B
:101D8000F8004808F200F301F21BF3036430F0009E
:101D90000030F1000A168A1594220A128A15710879
:101DA000FA01FA077008F901F9070A168A158C2357
:101DB0000A128A157708093E0A168A11BD200A12EE
:101DC0008A15503E84000A168A1100200A128A15CC
:101DD00083120313B0000A168A1100200A128A1512
:101DE000B1000A168A1100200A128A15B2000330C7
:101DF000C4004408A4006430F7000030F80048082C
:101E0000F900FA01F91BFA030A168A158C230A1243
:101E10008A157708123E0A168A11BD200A128A1501
:101E2000503E84000A168A1100200A128A15831275
:101E30000313B3000A168A1100200A128A15B4008F
:101E40000A168A1100200A128A15B5000A168A118C
:101E50001B230A128A15831203133008C5003108A8
:101E6000C6003208C7000330C3004308A400480876
:101E7000F200F301F21BF3030A30F0000030F1002E
:101E80000A168A1594220A128A1570080A168A11EF
:101E9000BD200A128A15503E84000A168A110020BD
:101EA0000A128A1583120313B0000A168A11002041
:101EB0000A128A15B1000A168A1100200A128A1520
:101EC000B2004508B3004608B4004708B5000A163A
:101ED0008A111B23831203133008C0003108C1008C
:101EE0003208C20008004808803A753E031CE12F02
:101EF0000330C3004308A4004808F200F301F21BBA
:101F0000F3030A30F0000030F1000A168A1594221B
:101F10000A128A1570080A168A11BD200A128A153B
:101F2000503E84000A168A1100200A128A15831274
:101F30000313B0000A168A1100200A128A15B10094
:101F40000A168A1100200A128A15B2000330C40052
:101F50004408A4000A30F7000030F8004808F900EF
:101F6000FA01F91BFA030A168A158C230A128A153C
:101F70007708093E0A168A11BD200A128A15503EBA
:101F800084000A168A1100200A128A15831203138C
:101F9000B3000A168A1100200A128A15B4000A1624
:101FA0008A1100200A128A15B5000A168A111B230D
:101FB000831203133008C0003108C1003208C20088
:101FC00008000330C3004308A40048080A168A1119
:101FD000BD200A128A15503E84000A168A1100207C
:101FE0000A128A1583120313C0000A168A110020F0
:101FF0000A128A15C1000A168A110020C2000800C0
:1020000010308A000408840A820700340134003446
:10201000003400340A3400340034003464340034B2
:1020200000340034E83403340034003410342734EE
:1020300000340034A0348634013400344034423457
:102040000F34003480349634983400340034E13452
:10205000F53405340034CA349A343B3400348034C7
:102060003F34CD34CC343D34D73423343C34123473
:1020700083343A34B734D1343834C634273437341F
:10208000383486343534C034D6343334CC342B34FD
:102090003234703489343034E734DB342E34E53470
:1020A0003C341E344234A2340D34003480343F3486
:1020B0000034203441340034C834423400347A349B
:1020C000443440341C3446345034C334473424340C
:1020D00074344934973418344B34BC34BE344C34E3
:1020E0006B346E344E340334153450347934AD349B
:1020F0006034F33449347134003480343F34723402
:1021000031343F34FE3475343E34583463343D3416
:1021100095341D343C34C534AE343A3479342134EA
:1021200039349434803437349334A73435345634C6
:1021300015343434003400340034003480343F34F7
:10214000F034FF34BE34E234A9343E348334763480
:10215000BE34AE342B343E343C34C334BD34D2347C
:1021600013343D347834D334BB3425342E343134F5
:102170006634003425346434003483120313A6001B
:10218000A501261CC7282408FC007C08A50703100D
:10219000A40D0310A60CA608031DC12825080800DD
:1021A000831203132308A6002408A7002508A8000B
:1021B0000310270D280DA9002908AE00AE08031D45
:1021C000E8280030A0000030A1000030A200080084
:1021D0002008A6002108A7002208A8000310270D48
:1021E000280DA9002908AF00AF08031DFE28003004
:1021F000A0000030A1000030A20008000030AB00B9
:102200000030AC000030AD0089302F07A600260852
:10221000AE022308A6002408A7002508A800103055
:102220000310A80CA70CA60CFF3E031D10292608BE
:10223000A9002908AF002008A6002108A70022084D
:10224000A80010300310A80CA70CA60CFF3E031D1D
:1022500022292608A9002908AF068030A6002608F2
:10226000AF05A417FF30A305FF30A4050030A50576
:10227000A117FF30A005FF30A1050030A2051830DE
:10228000A6002608AA0001300310AB0DAC0DAD0D61
:10229000FF3E031D442922082502031D552921085C
:1022A0002402031D552920082302031C622920084B
:1022B000A3022108031C210FA4022208031C220AE6
:1022C000A5022B1401300310A30DA40DA50DFF3E94
:1022D000031D63290130AA02031D43292B08F000C6
:1022E0002C08F1002D08F2002E08A6002608F300A5
:1022F0002F08A7002708F4000A168A15472470083B
:1023000083120313A0007108A1007208A200080044
:102310007008F6007108F7007208F8000310770DD6
:10232000780DF900790883120313A500A508031D91
:10233000A2290030F3000030F2000030F10000303C
:10234000F00008007308F6007408F7007508F8003C
:102350000310770D780DF9007908A400A408031D77
:10236000BA290030F3000030F2000030F1000030F4
:10237000F0000800F117FF30F005FF30F1050030E4
:10238000F205F417FF30F305FF30F4050030F505D2
:102390000030A3000030A2000030A1000030A000F7
:1023A0007F30A50298302407F6007608A502183081
:1023B000F6007608A4000130F6000310A00DA10D70
:1023C000A20DA30DF60BDD2975087202031DEE297F
:1023D00074087102031DEE2973087002031CFB29A7
:1023E0007308F0027408031C740FF1027508031CD3
:1023F000750AF202201401300310F00DF10DF20DF8
:10240000FF3E031DFC290130A402031DDB29A51F8B
:10241000272A2508803A973E0318172A0030F30030
:102420000030F2000030F1000030F0000800013010
:102430000310A30CA20CA10CA00CFF3E031D182A34
:102440000130F6007608A5070319422A172A18302A
:102450002502031C3F2A0030F3000030F200003058
:10246000F1000030F00008000130F6000310A00D6C
:10247000A10DA20DA30DF60B362A0130A502A50869
:10248000031D342A2308F3002208F2002108F1007A
:102490002008F0000800831203136708F0006808A2
:1024A000F1006908F2000030F3000030F400003061
:1024B000F5000A168A152F230A168A1103186F2AA7
:1024C000213083160313E3000030E4000030831250
:1024D0000313E7000030E8000030E9000800831231
:1024E0000313690868046704031D852A22308316D4
:1024F0000313E3000030E400003083120313E7000D
:102500000030E8000030E90008000030D0008030E2
:10251000D100BF30D2000030B0000030B1004030F8
:10252000B2006B30EA006A08F3006708F000680840
:10253000F1006908F2000A168A1512220A168A1199
:10254000700883120313B3007108B4007208B50059
:102550000A168A111B230A168A11831203133008E4
:10256000D3003108D4003208D5000A128A15282079
:102570000A168A11831203135008E7005108E80075
:102580005208E900FF30EB070318EC0AFF30EC07B4
:102590006708DD006808DE006908DF009530EA00A2
:1025A0006A08E0000830E1000030E2000A168A15EF
:1025B000AF240A168A11831203135D08E7005E0830
:1025C000E8005F08E9006708D0006808D1006908E2
:1025D000D2007230B0003130B1003F30B2006C0830
:1025E000F901F9076B08F801F8070A168A15A821FE
:1025F0000A168A11780883120313B3007908B4000D
:102600007A08B5000A168A111B230A168A1183124A
:1026100003133008D3003108D4003208D5000A1261
:102620008A152820831203135008E7005108E80098
:102630005208E9000800831203133008B60031087D
:10264000B7003208B8000310370D380DB90039084B
:10265000BA00BA08031D332B0030B0000030B100BF
:102660000030B20008003308B6003408B70035085F
:10267000B8000310370D380DB9003908BF00BF0886
:10268000031D492B0030B0000030B1000030B20013
:1026900008003F087B3EB6003608BA073008B6008F
:1026A0003108B7003208B80010300310B80CB70C6E
:1026B000B60CFF3E031D552B3608B9003908BF0084
:1026C0003308B6003408B7003508B80010300310DE
:1026D000B80CB70CB60CFF3E031D672B3608B900CB
:1026E0003908BF068030B6003608BF05B117B417E9
:1026F000FF30B305FF30B4050030B5050030BB0036
:102700000030BC000030BD000730B6003608BE0007
:10271000301C982B3308BB07340803110318340A04
:10272000031DBC07350803110318350A031DBD0737
:1027300001300310B20CB10CB00CFF3E031D992BFD
:1027400001300310B30DB40DB50DFF3E031DA12BD9
:102750000130BE02031D882B0930B6003608BE00CA
:10276000301CC02B3308BB07340803110318340A8C
:10277000031DBC07350803110318350A031DBD07E7
:1027800001300310B20CB10CB00CFF3E031DC12B85
:1027900001300310BD0CBC0CBB0CFF3E031DC92B4C
:1027A0000130BE02031DB02B3B08F0003C08F100D5
:1027B0003D08F2003A08B6003608F3003F08B700BB
:1027C0003708F4000A168A15472470088312031389
:1027D000B0007108B1007208B200080070308400C7
:1027E0000008F600840A0008F700840A0008F800D0
:1027F000840A0008F9000310780D790DFA007A08B0
:1028000083120313A500A508031D0F2C0030F3004D
:102810000030F2000030F1000030F00008007330AA
:1028200084000008F600840A0008F700840A000803
:10283000F800840A0008F9000310780D790DFA00F9
:102840007A08A400A408031D2E2C0030F3000030E9
:10285000F2000030F1000030F00008007030840019
:1028600000308004840A00308004840A80308004B0
:10287000840A0030800470308400FF308005840AB0
:10288000FF308005840AFF308005840A003080050F
:102890007330840000308004840A00308004840A8D
:1028A00080308004840A0030800473308400FF305C
:1028B0008005840AFF308005840AFF308005840A81
:1028C000003080050030A3000030A2000030A100DD
:1028D0000030A0007F30A502A0302407F600760863
:1028E000A5022030F6007608A4000130F60003109F
:1028F000A00DA10DA20DA30DF60B772C7330840053
:102900000008F600840A0008F700840A0008F800AE
:10291000840A0008F900703084000008FA00840A74
:102920000008FB00840A0008FC00840A0008FD007F
:1029300079087D02031DA62C78087C02031DA62CB5
:1029400077087B02031DA62C76087A02031CCB2C89
:10295000733084000008F600840A0008F700840A37
:102960000008F800840A0008F90070308400760836
:102970008002840A7708031C770F8002840A780893
:10298000031C780F8002840A7908031C790A8002EC
:10299000033084022014703084000310800D840AF8
:1029A000800D840A800D840A800D840384038403CF
:1029B0000130A402031D752CA51FFC2C2508803AAC
:1029C0009F3E0318EC2C0030F3000030F200003082
:1029D000F1000030F000080001300310A30CA20C3D
:1029E000A10CA00CFF3E031DED2C0130F600760873
:1029F000A5070319172DEC2C20302502031C142DDC
:102A00000030F3000030F2000030F1000030F00040
:102A100008000130F6000310A00DA10DA20DA30DBA
:102A2000F60B0B2D0130A502A508031D092D230867
:102A3000F3002208F2002108F1002008F00008004D
:102A400083160313BB01310830042F04031D4A2DE4
:102A50000030F0000030F1000030F2003208F300E6
:102A60003308F4003408F5000A168A152F230A16D5
:102A70008A11031C412D213083160313E30000301B
:102A8000E400003083160313AF000030B0000030C4
:102A9000B1000800340833043204031D562D003001
:102AA000AF008030B0003F30B10008002F08F000C8
:102AB0003008F1003108F2000030F3000030F4007B
:102AC0000030F5000A168A152F230A168A110318FA
:102AD000DA2D83160313320883120313C9008316F9
:102AE0000313330883120313CA0083160313340835
:102AF00083120313CB000A168A15AB250A168A1116
:102B0000831203134C0883160313BF0083120313AD
:102B10004B0883160313BE00831203134A0883165F
:102B20000313BD0083120313490883160313BC006B
:102B30003F08FB003E08FA003D08F9003C08F80099
:102B40000A128A110B200A168A11831603133408FD
:102B50007A06031DB12D33087906031DB12D320805
:102B600078060319BE2D2130E3000030E400003068
:102B7000AF000030B0000030B10008003C0801395F
:102B800083120313EF006F0883160313BB002F0893
:102B9000F0003008F1003108F2000A128A11032017
:102BA0000A168A11700883160313AF007108B0006B
:102BB0007208B100831603132F0883120313E70072
:102BC00083160313300883120313E80083160313DC
:102BD000310883120313E9000A168A114B220A16E0
:102BE0008A1183120313670883160313B500831237
:102BF0000313680883160313B600831203136908CE
:102C000083160313B700320883120313B000831630
:102C10000313330883120313B1008316031334081C
:102C200083120313B20083160313350883120313B0
:102C3000B30083160313360883120313B4008316FC
:102C40000313370883120313B5000A168A111B23D6
:102C50000A168A1183120313300883160313B8006F
:102C600083120313310883160313B900831203136D
:102C7000320883160313BA003808A3003908A400E9
:102C80003A08A5000A128A1531210A168A118316FC
:102C900003132308AF002408B0002508B1003B0847
:102CA000031908002F08F0003008F1003108F20085
:102CB0000A128A110320700883160313AF007108EB
:102CC000B0007208B100080083120313CF006E3009
:102CD0004F02031C442F0330C3004308A4000A30F2
:102CE000F7000030F8004F08C400C5014408F200A6
:102CF0004508F3006430F0000030F1000A168A1530
:102D000094220A168A117108FA01FA077008F9016B
:102D1000F9070A168A158C230A168A117708093EC4
:102D20000A168A11BD200A168A11293E84000A1645
:102D30008A1100200A168A1183120313B0000A16A2
:102D40008A1100200A168A11B1000A168A11002081
:102D50000A168A11B2000330C6004608A400643087
:102D6000F7000030F8004F08C700C8014708F90015
:102D70004808FA000A168A158C230A168A11770861
:102D8000123E0A168A11BD200A168A11293E8400B5
:102D90000A168A1100200A168A1183120313B3003F
:102DA0000A168A1100200A168A11B4000A168A111E
:102DB00000200A168A11B5000A168A111B230A166A
:102DC0008A11831203133008CC003108CD00320879
:102DD000CE000330C3004308A4004F08C400C5015F
:102DE0004408F2004508F3000A30F0000030F1001A
:102DF0000A168A1594220A168A1170080A168A1170
:102E0000BD200A168A11293E84000A168A11002064
:102E10000A168A1183120313B0000A168A110020C1
:102E20000A168A11B1000A168A1100200A168A11A0
:102E3000B2004C08B3004D08B4004E08B5000A16A5
:102E40008A111B230A168A11831203133008C90042
:102E50003108CA003208CB000030B0000030B100A9
:102E60003F30B2004908B3004A08B4004B08B5002F
:102E70000A168A111B23831203133008C00031087D
:102E8000C1003208C20008000B304F02031CCE2FD5
:102E90000330C3004308A4004F08C400C501440820
:102EA000F2004508F3000A30F0000030F1000A1685
:102EB0008A1594220A168A1170080A168A11BD20F2
:102EC0000A168A11293E84000A168A1100200A1661
:102ED0008A1183120313B0000A168A1100200A1601
:102EE0008A11B1000A168A1100200A168A11B2004E
:102EF0000330C6004608A4000A30F7000030F8008E
:102F00004F08C700C8014708F9004808FA000A1628
:102F10008A158C230A168A117708093E0A168A1127
:102F2000BD200A168A11293E84000A168A11002043
:102F30000A168A1183120313B3000A168A1100209D
:102F40000A168A11B4000A168A1100200A168A117C
:102F5000B5000A168A111B230A168A11831203135D
:102F60003008CC003108CD003208CE000030B0006F
:102F70000030B1003F30B2004C08B3004D08B4003F
:102F80004E08B5000A168A111B238312031330085A
:102F9000C0003108C1003208C20008000030B00093
:102FA0000030B1003F30B2000330C3004308A4003A
:102FB0004F080A168A11BD200A168A11293E84007C
:102FC0000A168A1100200A168A1183120313B3000D
:102FD0000A168A1100200A168A11B4000A168A11EC
:102FE00000200A168A11B5000A168A111B238312C3
:102FF00003133008C0003108C1003208C2000800C5
:1031E2000A168A15062183160313911408000A167B
:1031F2008A15062183160313111408000A168A156C
:1032020006218316031311150800831603131108F0
:103212001F390319141906290800F0000A168A1525
:10322200062170088312031393000800F100F001D5
:103232003A3071020318232930307102031C23290A
:10324200F001F00A700C08008316031387150716A5
:1032520028308312031394008316031391019401FF
:10326200093093000800F6007608831203138600E3
:10327200081488140530F0000030F1000A128A1593
:1032820000208312031388100800F60076088312C8
:1032920003138600081088140130F0000030F1009A
:1032A2000A128A1500208312031388100800780876
:1032B200F0007908F100F2018E30FB007B08F30088
:1032C200F4010A168A1547247008F8007108F900FB
:1032D2007208FA000800803083120313DF066008C8
:1032E200D0006108D1006208D2005D08D3005E08F8
:1032F200D4005F08D5000A128A152820831203130E
:103302005008DD005108DE005208DF0008000130DD
:10331200F0000030F1000A128A1500200A168A1500
:1033220038300A168A1546210A168A1501300A16FD
:103332008A1546210A168A1506300A168A1546216A
:103342000A168A150E300A168A1546210800FD0152
:10335200F91FB229F809F909F80A0319F90AFD0156
:10336200FD0A7808F0007908F100F2018E30FB00C6
:103372007B08F3007D08FC007C08F4000A168A151D
:1033820047247008F8007108F9007208FA00080072
:10339200F401F501701CD3297208F4070318F50A29
:1033A2007308F50701300310F20DF30DFF3E031D04
:1033B200D42901300310F10CF00CFF3E031DDB2970
:1033C20071087004031DCB297508F101F107740817
:1033D200F001F0070800F1000A168A1506210A1604
:1033E2008A158316031391150A168A1506210A16E1
:1033F2008A15831203131308F0007008F2000A16EC
:103402008A1506210A168A15F108031D0C2A83164D
:10341200031391160F2A83160313911211167208C1
:103422000800720871047004031D242A73088400C2
:1034320083138001840A80010030F0000030F10023
:103442000030F200080072087F39F400F501031021
:10345200F40DF50D73088400740883138000840A48
:1034620075088000710D710D0139F400F5017308C2
:10347200840074088004840A750880047308840038
:1034820082308007840F00080318000AFF00FF3013
:103492007F0780008403720880393F38F200F113FD
:1034A200080083120313DE018E30DB005B08DD00AF
:1034B200DA1F682AD709D809D909DA09D70A0319FC
:1034C200D80A0319D90A0319DA0ADE01DE0AFF3023
:1034D2005A0503197A2A01300310DA0CD90CD80CD8
:1034E200D70CFF3E031D6D2A0130DB005B08DD07B0
:1034F200682A5708F0005808F1005908F2005D08E0
:10350200DB005B08F3005E08DC005C08F4000A16CE
:103512008A154724700883120313D7007108D80054
:103522007208D9000800F601F31F9E2AF209F30976
:10353200F20A0319F30AF601F60AF11FA52AF009A5
:10354200F109F00A0319F10A710870040319D22A69
:10355200F501F50AF11BB92A01300310F00DF10D46
:10356200FF3E031DAE2A0130F4007408F507AB2AB2
:1035720071087302031DBF2A70087202031CC72A56
:103582007008F2027108031CF303F3020130031006
:10359200F10CF00CFF3E031DC82A0130F502031D99
:1035A200B92A76080319DA2AF209F309F20A031989
:1035B200F30A7308F101F1077208F001F00708003D
:1035C2008312031323082204210420040319262B47
:1035D200A901A90AA31BFB2A0130A8000310A00D10
:1035E200A10DA20DA30DA80BEF2A0130A8002808F7
:1035F200A907EB2A23082702031D092B220826020A
:10360200031D092B21082502031D092B2008240272
:10361200031C192B2008A4022108031C210FA50258
:103622002208031C220FA6022308031C230FA70251
:1036320001300310A30CA20CA10CA00CFF3E031D31
:103642001A2B0130A902031DFB2A2708A300260812
:10365200A2002508A1002408A0000800F21F562B92
:103662000030F6000030F7008030F8007009F900F1
:103672007109FA007209FB00F90A0319FA0A03191F
:10368200FB0A7908F6077A0803187A0F492B4A2BA6
:10369200F7077B0803187B0F4F2B502BF807760890
:1036A200F0007708F1007808F200F51F7D2B00305A
:1036B200F6000030F7008030F8007309F900740951
:1036C200FA007509FB00F90A0319FA0A0319FB0A41
:1036D2007908F6077A0803187A0F702B712BF7070F
:1036E2007B0803187B0F762B772BF8077608F300FD
:1036F2007708F4007808F5008030F2068030F5068D
:1037020075087202031D080074087102031D080087
:1037120073087002080083120313A101F81F982B8B
:10372200F709F809F70A0319F80AA101A10AFA1F11
:10373200A32BF909FA09F90A0319FA0A0130FB0065
:103742007B08A106A201A301780877040319DA2BEA
:10375200A001A00AF81BB92B01300310F70DF80DD8
:10376200FF3E031DAE2B0130FB007B08A007AB2BF5
:1037720001300310A20DA30DFF3E031DBA2B7808E2
:103782007A02031DC62B77087902031CCF2B770818
:10379200F9027808031CFA03FA022214013003101A
:1037A200F80CF70CFF3E031DD02B0130A002031DC5
:1037B200B92B21080319E22BA209A309A20A0319B2
:1037C200A30A2308F801F8072208F701F7070800FF
:1037D2000030FC000030FB000030FA000030F9003D
:1037E200730872047104700403193E2CFD01FD0A72
:1037F200F31B092C0130F8000310F00DF10DF20D4E
:10380200F30DF80BFD2B0130F8007808FD07F92BBA
:103812000130F8000310F90DFA0DFB0DFC0DF80B49
:103822000B2C73087702031D202C72087602031DED
:10383200202C71087502031D202C70087402031CD1
:10384200312C7008F4027108031C710FF502720822
:10385200031C720FF6027308031C730FF70279142C
:1038620001300310F30CF20CF10CF00CFF3E031DBF
:10387200322C0130FD02031D092C7C08F3007B0869
:10388200F2007A08F1007908F000080073080319C1
:103892004F2C720871047004031D622C0030F0007A
:1038A2000030F1000030F20008000130F500750828
:1038B200F30701300310F20CF10CF00CFF3E031D74
:1038C2005B2CFE30720503197D2C562C0130F5005D
:1038D2007508F3070130F007003003180130F107D3
:1038E200003003180130F20701300310F20CF10C22
:1038F200F00CFF3E031D762CFF30720503198C2C51
:10390200672C0130F30201300310F00DF10DF20DBE
:10391200FF3E031D852CF11F822C7318962CFF305D
:10392200F0057F30F105FF30F2050310F30C730848
:10393200F500F601F70110300310F50DF60DF70D45
:10394200FF3E031D9D2C7508F0047608F1047708EC
:10395200F204740803190800F217080003308312F6
:103962000313E3006308A40061080A168A11BD204C
:103972000A168A1583120313600784000A168A1135
:1039820000200A168A15E4000A168A1100200A1677
:103992008A15E5000A168A1100200A168A15E60021
:1039A200620861040319212D0330E3006308A400B7
:1039B200FF30E1070318E20AFF30E20761080A1646
:1039C2008A11BD200A168A15831203136007840028
:1039D2000A168A1100200A168A15D0000A168A11C0
:1039E20000200A168A15D1000A168A1100200A162A
:1039F2008A15D2006408B0006508B1006608B200FA
:103A02005D08B3005E08B4005F08B5000A168A11AB
:103A12001B230A168A15831203133008D3003108B8
:103A2200D4003208D5000A128A1528200A168A15EF
:103A3200831203135008E4005108E5005208D02C09
:103A42006408DD006508DE006608DF0008008030DB
:103A52000A168A1546210A168A1548300A168A1548
:103A620034210A168A1575300A168A1534210A1667
:103A72008A156D300A168A1534210A168A1569309C
:103A82000A168A1534210A168A1564300A168A150E
:103A920034210A168A1569300A168A1534210A1643
:103AA2008A1574300A168A1534210A168A15793055
:103AB2000A168A1534210A168A153A300A168A1508
:103AC20034210A168A15203083120313ED006D0883
:103AD20083160313C400203083120313ED006D0814
:103AE20083160313C500B53083120313ED006D086E
:103AF200E30083160313620883120313E501E5074B
:103B020083160313610883120313E401E407C2302E
:103B12000A128A1136200A168A15831603134208DE
:103B22000A168A1534210A168A15831603134308C6
:103B32000A168A1534210A168A15831603134408B5
:103B42000A168A1534210A168A1525300A168A158C
:103B520034210800831203134908CD004A08CE001D
:103B62004B08CF0003104E0D4F0DD0005008D60069
:103B7200D608031DC52D0030CC000030CB0000302C
:103B8200CA000030C90008004908CD004A08CE002A
:103B92004B08CF0017300310CF0CCE0CCD0CFF3EDC
:103BA200031DCC2D4D08D0005008D100CA17FF309C
:103BB200C905FF30CA050030CB054908D2004A08C2
:103BC200D3004B08D400D5018E30D602D61F072E63
:103BD2005608803A8F3E0318F72D0030CC00003093
:103BE200CB000030CA000030C900080001300310C9
:103BF200D50CD40CD30CD20CFF3E031DF82D013092
:103C0200CD004D08D6070319222EF72D1830560283
:103C1200031C1F2E0030CC000030CB000030CA0045
:103C22000030C90008000130CD000310D20DD30DC1
:103C3200D40DD50DCD0B162E0130D602D608031D9C
:103C4200142E51080319302ED209D309D409D509EB
:103C5200D20A0319D30A0319D40A0319D50A55083B
:103C6200CC005408CB005308CA005208C90008000F
:103C7200C0300A168A1546210A168A1554300A16C9
:103C82008A1534210A168A1565300A168A153421D6
:103C92000A168A156D300A168A1534210A168A15F3
:103CA20070300A168A1534210A168A1565300A16EA
:103CB2008A1534210A168A1572300A168A15342199
:103CC2000A168A1561300A168A1534210A168A15CF
:103CD20074300A168A1534210A168A1575300A16A6
:103CE2008A1534210A168A1572300A168A15342169
:103CF2000A168A1565300A168A1534210A168A159B
:103D02003A300A168A1534210A168A15B0308312FF
:103D12000313ED006D08E300831603135E0883129C
:103D22000313E400831603135F0883120313E500F1
:103D320083160313600883120313E600C2300A12CB
:103D42008A1136200A168A1583160313CA01CB017B
:103D52004A08C23E8400831380080319C32E4A080E
:103D6200C23E8400831300080A168A1534210A16FB
:103D72008A15013083160313CA070318CB0A0030D1
:103D8200CB07A92E20300A168A1534210A168A1565
:103D920043300A168A1534210800831203135F0880
:103DA200F0006008F1006108F2006630E20062088B
:103DB200F3000A168A1512220A168A1583120313B1
:103DC200E71F082F5F08F0006008F1006108F200A9
:103DD2000030F3000030F4000030F5000A168A15B6
:103DE2002F230A168A150318FF2E0030831203139D
:103DF200DF008030E000BF30E100080000308312B5
:103E02000313DF000030E0000030E1000800003062
:103E12006702153003196602031808005F08C9001B
:103E22006008CA006108CB000A168A15AB250A167B
:103E32008A15831203134C08DA004B08D9004A088A
:103E4200D8004908D7000A168A1552220A168A157E
:103E5200831203135708E3005808E4005908E500E9
:103E62005F08F0006008F1006108F2006308F300E7
:103E72006408F4006508F5000A168A152F230A164D
:103E82008A1503185E2F003083120313D00080308E
:103E9200D100BF30D2006308D3006408D4006508A3
:103EA200D5000A128A152820831203135008DF0056
:103EB2005108E0005208E10008008312031363086E
:103EC200DF006408E0006508E100080083120313C4
:103ED200690868046704031D752F0030E70000308D
:103EE200E8000030E900080069087F39EC00ED01C4
:103EF2000310EC0DED0D6C08EA070318EB0A6D08D0
:103F0200EB07680D680D0139EC00ED016C08EA075A
:103F12000318EB0A6D08EB07EB1F9E2F2230831666
:103F22000313E3000030E400003083120313E700C0
:103F32000030E8000030E90008006B08803AFF001A
:103F420081307F02031DA72F00306A02031CE72F76
:103F5200223083160313E3000030E40083120313BC
:103F62006708F0006808F1006908F2000030F30009
:103F72000030F4000030F5000A168A152F230A16C5
:103F82008A150318DE2FFF3083160313A0007F303B
:103F9200A1007F30A2002008F0002108F1002208D1
:103FA200F2000A128A110320700883120313E70039
:103FB2007108E8007208E9000800FF308312031359
:103FC200E7007F30E8007F30E90008008312031326
:103FD2006B08ED006A08EC006D0DED0CEC0C690845
:103FE2006C0680396C06E9006A080139EC00EC0CB9
:0E3FF200EC0C68086C067F396C06E8000800CD
:02400E0071FF40
:00000001FF
