:060000000A128A11122809
:10000800FE00030EF0000408F1000A08F200831253
:1000180003137F08F3000A128A115D280A128A1155
:100028001528F90183010A128A111A288316031365
:100038008501FF308600043081000B168B108B166B
:100048000B118B17831203138501791C29280130A2
:100058008312031385003230F4000030F5000A12D1
:100068008A1145200A128A118312031385010A3066
:10007800F4000030F5000A128A1145200A128A118C
:100088002928F701F8017808803AF6007508803ABF
:100098007602031D51287408770203180800F91C1A
:1000A8004728F9100130F7070318F80A0030F80755
:1000B80047288B138B1C64288B100130F90668289D
:1000C8000B1D68280B11F9148B177308FF007208B1
:1000D8008A0071088400700E8300FE0E7E0E0900EF
:02400E0071FF40
:00000001FF
