:060000000A128A11122809
:10000800FE00030EF1000408F2000A08F300831250
:1000180003137F08F4000A128A115F280A128A1152
:100028001528F801F601F70183010A128A111C2824
:1000380019308316031399001812831203139817A3
:1000480083160313181318159816FF3085008601B8
:10005800880106309F0083120313860118161813AF
:10006800831603138C16831203138C128B170B172A
:10007800051E5928051A3E2805080F39F500750888
:10008800F70083160313981C452877088312031377
:1000980099007708F50004300310F50DFF3E031DA5
:1000A800502808080F3975048800781C3C287810F7
:1000B800760886003C288B138C1E67281A08F000E7
:1000C8007008F60078148B177408FF0073088A000C
:0E00D80072088400710E8300FE0E7E0E090079
:02400E0071FF40
:00000001FF
