:060000000A128A11122809
:10000800FE00030EF0000408F1000A08F200831253
:1000180003137F08F3000A128A112A2E0A128A1182
:100028001528F801F90183160313AB01AC0183010C
:100038000A128A111F2883160313A901AA01FF3087
:10004800850086018312031386018030831603130B
:100058009F004130831203139F00831603130C176C
:10006800831203130C130B178B17E830F4000330BB
:10007800F5000A128A1141260A128A118312031303
:100088001F1583160313A901AA01A501A601A7013B
:10009800A801831603132C082B0403194D28AB0160
:1000A800AC01831203131E0883160313A000A101D9
:1000B8002008A9002108AA002A08A1002908A000F0
:1000C8002008A100A0012008A9002108AA002908E9
:1000D8001E04A0002A08A1002008A9002108AA00DF
:1000E8002A08F701F7072908F601F607CD30F400CA
:1000F8000030F5000A128A1191240A128A11750833
:1001080083120313A601A6077408A501A5070A12FE
:100118008A1105260A128A11831203132508EA0098
:100128002608EB002708EC000A128A1131240A126B
:100138008A11831203136A0883160313A200831219
:1001480003136B0883160313A300831203136C08AD
:1001580083160313A400220883120313BB0083161B
:100168000313230883120313BC0083160313240804
:1001780083120313BD000A128A1139230A128A1145
:10018800831203133C0883160313A801A8078312DC
:1001980003133B0883160313A701A7072A08F701CF
:1001A800F7072908F601F607CD30F4000030F5000E
:1001B8000A128A11EE240A128A117508831203138F
:1001C800A601A6077408A501A5070A128A11052623
:1001D8000A128A11831203132508AE002608AF00FD
:1001E8002708B000D730AB00A330AC004130AD00D9
:1001F8000A128A1181220A128A11831203132B0808
:10020800EA002C08EB002D08EC000A128A113124B0
:100218000A128A11831203136A0883160313A200B1
:10022800831203136B0883160313A30083120313AB
:100238006C0883160313A400220883120313BB005F
:1002480083160313230883120313BC0083160313B6
:10025800240883120313BD000A128A1139230A12D3
:100268008A11831203133C0883160313A601A607F9
:10027800831203133B0883160313A501A5070A304D
:1002880025062604031D5029A501A6010130A7074C
:100298000318A80A0030A8072808A1002708A0000A
:1002A800A00EA10EF030A10520080F39A104F030EE
:1002B800A0052008A7002108A80025082704A900F0
:1002C80026082804AA002908831203138600E830A8
:1002D800F4000330F5000A128A1141260A128A1125
:1002E800831203131F154D28831203135D08E300BF
:1002F8005E08E4005F08E5000310640D650DE60084
:100308006608E9006008E3006108E4006208E500A7
:100318000310640D650DE6006608E8006908031916
:10032800A129680869020318A8296903FF3A680720
:10033800E30019306302031CA8296008DD00610886
:10034800DE006208DF000800680803190800690871
:1003580068020318B7296803FF3A6907E3001930F0
:100368006302031808000630E3006308E700DF1B98
:10037800E717E21B6717DE17FF30DD05FF30DE05E4
:100388000030DF05E117FF30E005FF30E105003000
:10039800E205680869020318F72901300310E00D27
:1003A800E10DE20DFF3E031DD2290130E802680885
:1003B80069060319F2290130E702670807390319AA
:1003C800F229D12901300310DF0CDE0CDD0CFF3ED1
:1003D800031DE7290130E3006308E9076908680697
:1003E8000319202AE629690868020318202A01301F
:1003F8000310DD0DDE0DDF0DFF3E031DFC2901306E
:10040800E9026808690603191C2A0130E70267082F
:10041800073903191C2AFB2901300310E20CE10CEF
:10042800E00CFF3E031D112A0130E3006308E807D2
:1004380069086806031D102AE71F322AFF30DD0607
:10044800FF30DE06FF30DF060130DD07003003181D
:100458000130DE07003003180130DF07671F442A28
:10046800FF30E006FF30E106FF30E2060130E0072A
:10047800003003180130E107003003180130E207AB
:10048800E7015D08E0075E08031103185E0A031D13
:10049800E1075F08031103185F0A031DE207E21F63
:1004A800672AFF30E006FF30E106FF30E206013040
:1004B800E007003003180130E1070030031801306D
:1004C800E207E701E70A6008A0006108A1006208E6
:1004D800A2006908E3006308A3006708E400640851
:1004E800A4000A128A11C723831203132008DD000F
:1004F8002108DE002208DF000800831203132E08FB
:10050800B1002F08B2003008B3000310320D330DCC
:10051800B4003408B900B908031D992A0030AB00AB
:100528000030AC000030AD0008002B08B1002C08EA
:10053800B2002D08B3000310320D330DB400340897
:10054800BA00BA08031DAF2A0030AB000030AC0077
:100558000030AD0008000030B6000030B7000030B1
:10056800B80089303A07B1003108B9022E08B10045
:100578002F08B2003008B30010300310B30CB20CCF
:10058800B10CFF3E031DC12A3108B4003408BA007B
:100598002B08B1002C08B2002D08B300103003104E
:1005A800B30CB20CB10CFF3E031DD32A3108B400C2
:1005B8003408BA068030B1003108BA05AF17FF30E9
:1005C800AE05FF30AF050030B005AC17FF30AB0506
:1005D800FF30AC050030AD051830B1003108B5006A
:1005E80001300310B60DB70DB80DFF3E031DF52AF7
:1005F8002D083002031D062B2C082F02031D062B85
:100608002B082E02031C132B2B08AE022C08031CEC
:100618002C0FAF022D08031C2D0AB002361401302E
:100628000310AE0DAF0DB00DFF3E031D142B0130AE
:10063800B502031DF42A3608A0003708A1003808BF
:10064800A2003908B1003108A3003A08B200320804
:10065800A4000A128A11C723831203132008AB00CF
:100668002108AC002208AD000800831203133B08E0
:10067800BF003C08C0003D08C1000310400D410DFB
:10068800C2004208C800C808031D532B0030BE0032
:100698000030BD000030BC000030BB0008003B0843
:1006A800BF003C08C0003D08C10017300310C10C52
:1006B800C00CBF0CFF3E031D5A2B3F08C200420866
:1006C800C300BC17FF30BB05FF30BC050030BD05BB
:1006D8003B08C4003C08C5003D08C600C7018E3071
:1006E800C802C81F952B4808803A8F3E0318852BEF
:1006F8000030BE000030BD000030BC000030BB0040
:10070800080001300310C70CC60CC50CC40CFF3E12
:10071800031D862B0130BF003F08C8070319B02B03
:10072800852B18304802031CAD2B0030BE0000306A
:10073800BD000030BC000030BB0008000130BF0025
:100748000310C40DC50DC60DC70DBF0BA42B01307A
:10075800C802C808031DA22B43080319BE2BC409ED
:10076800C509C609C709C40A0319C50A0319C60A6F
:100778000319C70A4708BE004608BD004508BC0063
:100788004408BB0008008312031323080319D12B64
:10079800220821042004031DE42B0030A0000030AF
:1007A800A1000030A20008000130F4007408A3077B
:1007B80001300310A20CA10CA00CFF3E031DDD2B81
:1007C800FE3022050319FF2BD82B0130F4007408E2
:1007D800A3070130A007003003180130A10700303B
:1007E80003180130A20701300310A20CA10CA00CC1
:1007F800FF3E031DF82BFF30220503190E2CE92BB1
:100808000130A30201300310A00DA10DA20DFF3E7F
:10081800031D072CA11F042C2318182CFF30A0053A
:100828007F30A105FF30A2050310A30C2308F400B4
:10083800F501F60110300310F40DF50DF60DFF3E2D
:10084800031D1F2C7408A0047508A1047608A204CF
:10085800240803190800A2170800831203136A0862
:10086800DD006B08DE006C08DF006A08D1006B0849
:10087800D2006C08D3000A128A113D250A128A1187
:10088800831203135108DA005208DB005308DC0016
:100898000A128A1150260A128A11831203135A085F
:1008A800E0005B08E1005C08E2000A128A11782186
:1008B8000A128A11831203135D08ED005E08EE0028
:1008C8005F08EF006D08DD006E08DE006F08DF00CE
:1008D8006A08E0006B08E1006C08E2000A128A115D
:1008E80078210A128A11831203135D08EA005E0850
:1008F800EB005F08EC006A08D1006B08D2006C08B6
:10090800D3000A128A113D25831203135108EA0005
:100918005208EB005308EC00080083120313A201ED
:10092800F51F9D2CF409F509F40A0319F50AA2012B
:10093800A20AF71FA82CF609F709F60A0319F70AFD
:100948000130A0002008A206A301A40175087404C0
:100958000319DF2CA101A10AF51BBE2C01300310DD
:10096800F40DF50DFF3E031DB32C0130A000200847
:10097800A107B02C01300310A30DA40DFF3E031DE9
:10098800BF2C75087702031DCB2C74087602031C54
:10099800D42C7408F6027508031CF703F702231415
:1009A80001300310F50CF40CFF3E031DD52C01306B
:1009B800A102031DBE2C22080319E72CA309A409D0
:1009C800A30A0319A40A2408F501F5072308F4016A
:1009D800F407080083120313A201F71FFA2CF60983
:1009E800F709F60A0319F70AA201A20AF51F012D51
:1009F800F409F509F40A0319F50A750874040319CA
:100A08002E2DA101A10AF51B152D01300310F40D9F
:100A1800F50DFF3E031D0A2D0130A0002008A10797
:100A2800072D75087702031D1B2D74087602031C19
:100A3800232D7408F6027508031CF703F70201302A
:100A48000310F50CF40CFF3E031D242D0130A10208
:100A5800031D152D22080319362DF609F709F60A84
:100A68000319F70A7708F501F5077608F401F40782
:100A78000800831203135108F4005208F5005308C4
:100A8800F6005830D4005408F7000A128A11C92514
:100A98000A128A1183120313D91F592D0030D1006D
:100AA8000030D2000030D300080000305902153061
:100AB80003195802031808005108BB005208BC006B
:100AC8005308BD000A128A1139230A128A118312A7
:100AD80003133E08CC003D08CB003C08CA003B0885
:100AE800C9000A128A118725831203134908D50001
:100AF8004A08D6004B08D7005508D1005608D2003E
:100B08005708D300080083120313D0018E30CD009C
:100B18004D08CF00CC1F9D2DC909CA09CB09CC09A6
:100B2800C90A0319CA0A0319CB0A0319CC0AD00146
:100B3800D00AFF304C050319AF2D01300310CC0C3F
:100B4800CB0CCA0CC90CFF3E031DA22D0130CD00F1
:100B58004D08CF079D2D4908A0004A08A1004B0861
:100B6800A2004F08CD004D08A3005008CE004E0843
:100B7800A4000A128A11C723831203132008C9008C
:100B88002108CA002208CB000800760875047404FE
:100B9800031DD52D7708840083138001840A800102
:100BA800080076087F3983120313A000A1010310FF
:100BB800A00DA10D77088400200883138000840A03
:100BC80021088000750D750D0139A000A101770875
:100BD800840020088004840A21088004770884009F
:100BE80082308007840F00080318000AFF00FF30D6
:100BF8007F0780008403760880393F38F600F513B4
:100C0800080083120313AA01A61F112EA509A6091D
:100C1800A50A0319A60AAA01AA0A2508A0002608F7
:100C2800A100A2018E30A8002808A3002A08A90064
:100C38002908A4000A128A11C72383120313200863
:100C4800A5002108A6002208A70008008B130C1F86
:100C5800342E0C13013083160313AB000030AC00A4
:100C68008B1773088312FF0072088A0071088400CA
:100C7800700E8300FE0E7E0E0900FF30F407031885
:100C8800F50AFF30F507FF307506031D4D2EFF30BE
:100C9800740603190800412E831203135C085B04D1
:0C0CA8005A04031908008030DC06080024
:02400E0071FF40
:00000001FF
