:060000000A128A11FC2F18
:100DF400F60076088312031386000714071187147C
:100E04000130F0000030F1000A128A1140278312E9
:100E1400031387100800F600760883120313860074
:100E24000710071187140130F0000030F1000A1296
:100E34008A11402783120313871008000130F00041
:100E44000030F1000A128A1140270A128A11383040
:100E54000A128A110D270A128A1101300A128A1104
:100E64000D270A128A1106300A128A110D270A1256
:100E74008A110E300A128A110D2708007108F30135
:100E8400F3077008F201F207730872040319542F70
:100E9400FF30F2070318F30AFF30F30773087204F4
:100EA400031D4A2FF401F5017508803AFF009330C1
:100EB4007F02031D5F2F883074020318080001307D
:100EC400F4070318F50A0030F507562F83160313A9
:100ED40086018701FF3088000A128A1120270A122E
:100EE4008A11F801F90183120313081E752F0808EB
:100EF4000F39F7007708FA007908803AFF0080304C
:100F04007F02031D872F50307802031C912F0A1291
:100F14008A1120270A128A11F801F901AA2F143024
:100F240078067904031D982FC030A52F2830780641
:100F34007904031D9F2F9430A52F3C307806790443
:100F4400031DAA2FD4300A128A110D270A128A11FE
:100F5400FA08031DAF2F3130F02F7A08013A031D30
:100F6400B52F3230F02F7A08023A031DBB2F3330ED
:100F7400F02F7A08043A031DC12F3430F02F7A0879
:100F8400053A031DC72F3530F02F7A08063A031DA2
:100F9400CD2F3630F02F7A08083A031DD32F37307F
:100FA400F02F7A08093A031DD92F3830F02F7A0828
:100FB4000A3A031DDF2F3930F02F7A080C3A031D4B
:100FC400E52F2A30F02F7A080D3A031DEB2F30302D
:100FD400F02F7A080E3A031DF52F23300A128A11D6
:100FE400FA260A128A110130F8070318F90A0030A8
:0C0FF400F907752F83010A128A11682F7B
:02400E0071FF40
:00000001FF
