:060000000A128A11F02F24
:100DE2007E088A007F088200F1260A128A1180009A
:100DF200840A04087D0603190034FF0A0319FE0A57
:100E0200F52E593400346F340034753400342034F4
:100E12000034503400347234003465340034733496
:100E220000347334003465340034643400342034C4
:100E32000034203400342E3400340D3400340A34AB
:100E420000348312031306080F39F200F30172080B
:100E5200F6007308F70077087604031D322F31304D
:100E62007E2F013076067704031D392F32307E2F14
:100E7200023076067704031D402F33307E2F043074
:100E820076067704031D472F34307E2F0530760611
:100E92007704031D4E2F35307E2F063076067704F9
:100EA200031D552F36307E2F083076067704031D3A
:100EB2005C2F37307E2F093076067704031D632FAF
:100EC20038307E2F0A3076067704031D6A2F3930B8
:100ED2007E2F0C3076067704031D712F2A307E2F69
:100EE2000D3076067704031D782F30307E2F0E30BA
:100EF20076067704031D812F2330F4000030F500BD
:100F02007508F101F1077408F001F00708001930C3
:100F1200831603139900181283120313981783166A
:100F22000313181318159816FF3086008312031343
:100F3200C001C101203084004230F8000408F900E9
:100F42002030FA007808840083130008FB00F80AB6
:100F5200790884007B088000F90AFA0BA32F061E89
:100F6200B02F0A128A1122270A128A1171088312DB
:100F72000313B901B9077008B801B807C001C1016C
:100F82004108803AFF0080307F02031DCA2F1030D3
:100F920040020318EB2F83160313981CCC2F8312E5
:100FA20003134008F8007807203E840083130008EA
:100FB20099000130C0070318C10A0030C107410877
:100FC200803AFF0080307F02031DE92F103040027B
:100FD200031CCC2F83120313061EB02FEB2F831397
:100FE2006230FD000730FE000230FF004230840014
:0E0FF2000A128A11F52683010A128A11882F2D
:00000001FF
