:060000000A128A11122809
:10000800FE00030EF1000408F2000A08F300831250
:1000180003137F08F4000A128A1199290A128A1117
:100028001528F801AE01AF0183010A128A111C28B4
:1000380083120313A501A6010F308316031386004C
:100048008701FF308800C43081000B168B108B1697
:100058000B118B17023083120313AA000030AB0078
:100068000430AC000030AD000A128A115A210A127D
:100078008A11C8300A128A11B3210A128A1183120E
:1000880003132A08303E0A128A11C6210A128A115D
:10009800C9300A128A11B3210A128A118312031372
:1000A8002C08303E0A128A11C6210A128A118312BC
:1000B8000313A801A901A7017F28C8300A128A11D1
:1000C800B3210A128A11831203132A08303E0A1236
:1000D8008A11C6210A128A11C9300A128A11B3215B
:1000E8000A128A11831203132C08303E0A128A114D
:1000F800C6210A128A1183120313AE080319612854
:10010800831203132E08013A031D7F28081EA22814
:1001180008080F39A4002408AF009A280130A80065
:100128000030A900A228A801A901A2282F080C3A8A
:1001380003199228023A03199728A22829082804A3
:10014800031DCC282B082A04031DB7282D082C04CE
:10015800031DB7280430AC000030AD000230AA00FF
:100168000030AB0001292D082C04031DC628FF30E0
:10017800AA070318AB0AFF30AB070930AC00003000
:10018800AD000129FF30AC070318AD0AFF30002984
:100198002B08803AFF0080307F02031DD5280230EB
:1001A8002A02031CEB28831203132D08803AFF0050
:1001B80080307F02031DE22804302C02031CEB2848
:1001C80083120313AC01AD01AA01AB010129093067
:1001D800831203132C062D04031DFB28AC01AD016B
:1001E8000130AA070318AB0A0030AB070129013018
:1001F800AC070318AD0A0030AD07C9300A128A11DE
:10020800B3210A128A11831203132C08303E0A12F2
:100218008A11C6210A128A11C8300A128A11B3211A
:100228000A128A11831203132A08303E0A128A110D
:10023800C6210A128A111F30F5000030F6000A1292
:100248008A117A210A128A11831203132E080319BC
:1002580028297F28760883120313A101A1077508AE
:10026800A001A0072108200403194429FF30A00792
:100278000318A10AFF30A10721082004031D3A2909
:10028800A201A3012308803AFF0083307F02031DE7
:100298004F29E830220203180800013083120313A3
:1002A800A2070318A30A0030A30746290130F50066
:1002B8000030F6000A128A112E210A128A113830EB
:1002C8000A128A11B3210A128A1101300A128A11FC
:1002D800B3210A128A1106300A128A11B3210A12AE
:1002E8008A110E300A128A11B321080083120313EF
:1002F800A001A101831203132108803AF7007608B0
:10030800803A7702031D8A2975082002031808001D
:10031800780803197E29F801013083120313A00716
:100328000318A10A0030A1077E298B138B1CA22970
:100338008B100130F0007008AE06A7290B1DA72905
:100348000B11F801F80A8B177408FF0073088A006C
:1003580072088400710E8300FE0E7E0E0900F700FD
:100368007708831203138700061206138616C8300F
:10037800F5000030F6000A128A112E2183120313A9
:1003880086120800F7007708831203138700061601
:1003980006138616C830F5000030F6000A128A11D6
:0A03A8002E218312031386120800B1
:00000001FF
