:060000000A128A11122809
:10000800FE00030EF0000408F1000A08F200831253
:1000180003137F08F3000A128A11B1290A128A1100
:100028001528F901AC01AD0183010A128A111C28B7
:1000380083120313A801A901AA01AB01A601A70114
:100048000F30831603138600FF3087008801C43001
:1000580081000B168B108B160B118B170A128A1145
:1000680078210A128A11C8300A128A11C9210A1283
:100078008A1130300A128A11DC210A128A11C93019
:100088000A128A11C9210A128A1130300A128A11F9
:10009800DC210A128A11831203132C08013A031D6A
:1000A800A02807080F39A4002408AD0079280C30CF
:1000B8005E280E30A4002408A5009F280C3075285F
:1000C8001830752825307528313075283D30752849
:1000D8004930752855307528623075286E30752876
:1000E8007A30A6000030A7009F282D08003A03198F
:1000F8006228013A03196428033A03196628063A64
:1001080003196828013A03196A28033A03196C2865
:100118000E3A03196E28013A03197028033A031995
:100128007228063A03195B28013A03197428033A1E
:1001380003195D289F28AC0125080C3A031DF328F4
:1001480029082804031DB0282B082A04031DB028F9
:100158000930A8000030BB282B082A04031DC0283A
:100168002808FF3EA80029080318013EFF3EA90001
:100178000930AA000030C7282A08FF3EAA002B0829
:100188000318013EFF3EAB00C8300A128A11C9218C
:100198000A128A11831203132808303E0A128A11A0
:1001A800DC210A128A11C9300A128A11C9210A12DD
:1001B8008A11831203132A08303E0A128A11DC219D
:1001C8000A128A11831203132708F501F507260876
:1001D800F401F4070A128A1198210A128A1183126B
:1001E800031325080E3A031D4F2809302806290451
:1001F800031D082909302A062B04031D0829A80114
:10020800A901AA01AB01202909302A062B04031DE4
:100218001829AA01AB012808013EA80029080318DB
:10022800013E003EA90020292A08013EAA002B0809
:100238000318013E003EAB00C8300A128A11C921DA
:100248000A128A11831203132808303E0A128A11EF
:10025800DC210A128A11C9300A128A11C9210A122C
:100268008A11831203132A08303E0A128A11DC21EC
:100278000A128A11831203132708F501F5072608C5
:10028800F401F4070A128A1198210A128A114F28D8
:10029800750883120313A101A1077408A001A00720
:1002A8002108200403196229FF30A0070318A10AB6
:1002B800FF30A10721082004031D5829A201A3012A
:1002C8002308803AFF0083307F02031D6D29E83040
:1002D800220203180800013083120313A20703182F
:1002E800A30A0030A30764290130F4000030F500A8
:1002F8000A128A114C210A128A1138300A128A11FC
:10030800C9210A128A1101300A128A11C9210A1256
:100318008A1106300A128A11C9210A128A110E306E
:100328000A128A11C9210800F701F8017808803AF1
:10033800F6007508803A7602031DA429740877022E
:1003480003180800790803199A29F9010130F707F9
:100358000318F80A0030F8079A298B138B1CB82960
:100368008B10AC01AC0ABD290B1DBD290B11F9017D
:10037800F90A8B177308FF0072088A007108840055
:10038800700E8300FE0E7E0E0900F60076088312BA
:1003980003138800061206138616C830F4000030CE
:1003A800F5000A128A114C218312031386120800E1
:1003B800F6007608831203138800061606138616BD
:1003C800C830F4000030F5000A128A114C2183125B
:0603D80003138612080069
:00000001FF
