:100000000A128A11E72F00308A000408840A820746
:1000100000344E344F342034543452344934413453
:100020004C34533420344C34453446345434003446
:1000300049344E34563441344C34493444342034F9
:10004000503449344E34213400345B3432345D341E
:1000500045346E3474346534723420345034493449
:100060004E34003441346C34723465346134643459
:1000700079342034733465347434003445344E3468
:100080005434453452342034503449344E343A34A4
:1000900000345B3431345D3453346534743420348B
:1000A000503449344E340034613420347034613477
:1000B0007334733477346F347234643400345634A8
:1000C00041344C34493444342034503449344E346F
:1000D0000034503449344E3420345334453454348D
:1000E00021340034533445345434203450344934AA
:0600F0004E343A340034E6
:1001C000E028831203134C080A128A1188220800BF
:1001D000831203134A080A128A1188220800640055
:1001E0008001840A0406031900340406F028303420
:1001F0007534033400346F348A34A53496347E0861
:100200008A007F088200FF200A128A118000840A77
:1002100004087D0603190034FF0A0319FE0A0329A6
:10022000F600760883120313860005148510051561
:100230000130F0000030F1000A128A11C22183124D
:10024000031305110800F6007608831203138600D5
:100250000510851005150130F0000030F1000A127C
:100260008A11C22183120313051108008316031398
:100270001815193099001812831203139817831652
:10028000031398168312031318160C128C1283167C
:1002900003138C160B178B1706309F008601FF3057
:1002A0008800803087008312031386010800F9005C
:1002B000F701F8017708790784000A128A110320F0
:1002C0000A128A1100380319080077087907840098
:1002D0000A128A1103200A128A110A128A111021A5
:1002E0000A128A110130F7070318F80A0030F807DC
:1002F0005A29F401F501701C83297208F4070318C8
:10030000F50A7308F50701300310F20DF30DFF3EF7
:10031000031D842901300310F10CF00CFF3E031D76
:100320008B2971087004031D7B297508F101F10701
:100330007408F001F00708000F30F0000030F10001
:100340000A128A11C2210A128A1138300A128A113D
:1003500023210A128A1108300A128A1123210A1253
:100360008A1101300A128A1123210A128A110630D9
:100370000A128A1123210A128A110C300A128A11D8
:10038000232108007108F301F3077008F201F20756
:100390007308720403190800F401F5017508803A26
:1003A000FF0081307F02031DD7290030740203183B
:1003B000EA290130F4070318F50A0030F50775083B
:1003C000803AFF0081307F02031DE829003074026B
:1003D000031CD929FF30F2070318F30AFF30F30793
:1003E000C82983160313071107128712071308146D
:1003F00088140815831203130712871207130716B0
:10040000871607170230A2008630A1009930A0009D
:10041000A00B082AA10B082AA20B082A8312031397
:100420000712871207130230A2008630A10099300C
:10043000A000A00B192AA10B192AA20B192AC73058
:100440008316031392000C308312031397000630B7
:1004500092000330A2008A30A1005630A000A00B09
:100460002F2AA10B2F2AA20B2F2A362A8A300A12F2
:100470008A113B220800FC0032307C020318442A17
:100480003230F6007608FC00F1307C02031C4C2A66
:10049000F030F6007608FC007C08F600F7017608DC
:1004A000F0007708F1000A30F2000030F3000A1281
:1004B0008A1179210A128A117108F901F907700865
:1004C000F801F8077908FB01FB077808FA01FA0739
:1004D0007B08F7007A08F6000310F70CF60C0310FF
:1004E000F70CF60C76088312031395007A0803398B
:1004F000F60004300310F60DFF3E031D7A2A17089C
:10050000CF39760497007C08F6007608CD00080005
:1005100083120313A5004D08023EA000003003180B
:100520000130A1002108803AA20080302202031D80
:100530009B2A25082002031CAF2A831203134D08AF
:10054000FE3EA000FF3003180030A1002108803AD1
:10055000803C031DAD2A20082502031808008312E1
:10056000031325084D020318D52A4D08A0002008C2
:10057000A300250823020318F72A23080A128A1168
:100580003B220A128A111A3083120313A100F83099
:10059000A000A00BC92AA10BC92A000003308312B6
:1005A0000313A0002008A307B92A4D082502031849
:1005B000F72A4D08A0002008A400240825020318EB
:1005C000F72A24080A128A113B220A128A111A30C9
:1005D00083120313A100F830A000A00BED2AA10B99
:1005E000ED2A0000033083120313A402DD2A25083C
:1005F0000A128A113B220A128A1103308312031352
:10060000A2008A30A1005630A000A00B052BA10B40
:10061000052BA20B052B0C2B0800013083120313B2
:10062000A9000030AA00AB01AC012C08803AFF0001
:1006300080307F02031D1E2B08302B020318432B32
:10064000831203132B08353E840083130008A60091
:100650002B083D3E8400000826060319322BA90111
:10066000AA01432B0130AB070318AC0A0030AC07DA
:100670002C08803AFF0080307F02031D412B083098
:100680002B02031C202B831203132A0829040319AD
:10069000962B01300A128A1123210A128A1157302F
:1006A0000A128A1157210A128A11831203134E105B
:1006B0000A128A11E8200A128A11831203138C1E6F
:1006C000662B0A128A11E1200A128A114D30831218
:1006D0000313A8001930A7009A30A600A60B6E2BB2
:1006E000A70B6E2BA80B6E2B752B0A128A11E1201B
:1006F0000A128A110A128A119C210A128A11803068
:100700000A128A1123210A128A1141300A128A110F
:1007100057210A128A11C0300A128A1123210A12A3
:100720008A111D300A128A1157210800FF308312E6
:100730000313C8070318C90AFF30C90701300A129A
:100740008A1123210A128A1110300A128A115721A4
:100750000A128A11831203134E1449084804031D18
:10076000080001300A128A1123210A128A1101306D
:100770000A128A1157210A128A11063083120313B2
:10078000A8001330A700B130A600A60BC52BA70BFD
:10079000C52BA80BC52BCC2B831203130C1ECC2B03
:1007A000313099000330A7009730A600A60BD62B56
:1007B000A70BD62BDB2B831203130C1EDB2B0A306B
:1007C00099000330A7009730A600A60BE52BA70BD6
:1007D000E52BEA2B0A128A11E02008000630831666
:1007E00003139F00850186018701FF3088000A12EC
:1007F0008A119C210A128A1180300A128A1123213F
:100800000A128A1141300A128A1157210A128A11DA
:10081000C0300A128A1123210A128A111D300A12CD
:100820008A1157210A128A110A128A11F1210A1219
:100830008A110A128A1136210A128A110A128A11A1
:10084000E1200A128A11831203138C1E442C981C77
:100850002B2C181218161A08B2003208C5004508C9
:10086000413A031D392C0A128A11E1200A128A1119
:10087000442C831203134508423A031D442C0A12E8
:100880008A11E8200A128A11831203134E1C592C74
:1008900001300A128A1123210A128A1136300A12F3
:1008A0008A1157210A128A110A128A1106250A1280
:1008B0008A1183120313081E232C0330B4008A30DC
:1008C000B3005630B200B20B632CB30B632CB40BE5
:1008D000632C6A2C8312031308080F39B200320804
:1008E000FD00081A712CFD08031DF02CCE1CA62C4F
:1008F00001300A128A1123210A128A1180300A1249
:100900008A1123210A128A112A300A128A115721C8
:100910000A128A11C0300A128A1123210A128A117E
:100920004C300A128A1157210A128A11063083129A
:100930000313B4001330B300B130B200B20B9E2CDD
:10094000B30B9E2CB40B9E2CA52CD22C01300A127A
:100950008A1123210A128A116A300A128A11572138
:100960000A128A110A128A1147260A128A110130C4
:100970000A128A1123210A128A1161300A128A117D
:1009800057210A128A11063083120313B400133060
:10099000B300B130B200B20BCB2CB30BCB2CB40BE9
:1009A000CB2CD22C0A128A119C210A128A11803077
:1009B0000A128A1123210A128A1141300A128A115D
:1009C00057210A128A11C0300A128A1123210A12F1
:1009D0008A111D300A128A1157210A128A11232CFA
:1009E0007D08013A031D232C01300A128A112321AC
:1009F0000A128A1136300A128A1157210A128A11F4
:100A00000A128A1106250A128A11232C8312031353
:100A1000B001B101831203133108803AFF00803026
:100A20007F02031D152D083030020318432E831258
:100A30000313081E0A2D0D30AE00FB30AD00AD0BC8
:100A40001F2DAE0B1F2D242D8312031308080F3901
:100A5000AD002D08AF00122E3008353E8400831300
:100A60008001800A0130B0070318B10A0030B107D5
:100A70002A300A128A1110210A128A11352E0230E8
:100A800083120313AD003008353E84002D08831314
:100A900080000130B0070318B10A0030B1072A30D6
:100AA0000A128A1110210A128A11352E033083127C
:100AB0000313AD003008353E84002D0883138000F9
:100AC0000130B0070318B10A0030B1072A300A120A
:100AD0008A1110210A128A11352E04308312031351
:100AE000AD003008353E84002D08831380000130AE
:100AF000B0070318B10A0030B1072A300A128A1170
:100B000010210A128A11352E053083120313AD000D
:100B10003008353E84002D08831380000130B00773
:100B20000318B10A0030B1072A300A128A111021C5
:100B30000A128A11352E063083120313AD003008D5
:100B4000353E84002D08831380000130B007031860
:100B5000B10A0030B1072A300A128A1110210A1294
:100B60008A11352E073083120313AD003008353E4D
:100B700084002D08831380000130B0070318B10AE8
:100B80000030B1072A300A128A1110210A128A1184
:100B9000352E083083120313AD003008353E840033
:100BA0002D08831380000130B0070318B10A00300C
:100BB000B1072A300A128A1110210A128A11352E21
:100BC000093083120313AD003008353E84002D0830
:100BD000831380000130B0070318B10A0030B10759
:100BE0002A300A128A1110210A128A11352E831214
:100BF00003133008353E8400831380010130B007B1
:100C00000318B10A0030B1072A300A128A111021E4
:100C10000A128A11352E083083120313B0000030F7
:100C2000B100352E2F08003A03192C2D013A031973
:100C30003F2D033A0319562D063A03196D2D013A3B
:100C40000319842D033A03199B2D0E3A0319B22D73
:100C5000013A0319C92D033A0319E02D073A031984
:100C6000F72D033A03190B2E352E83120313081A9E
:100C7000352E4130AE00EE30AD00AD0B3D2EAE0B4B
:100C80003D2E00000A2D0A128A110D230800FA01D8
:100C9000FB0183120313CE147B08803AFF008030DF
:100CA0007F02031D552E08307A02031808008312B4
:100CB0000313081E4C2E0D30F800FB30F700F70B25
:100CC0005F2EF80B5F2E642E8312031308080F3972
:100CD000F7007708F900A72F7A083D3E84008313B8
:100CE0008001800A0130FA070318FB0A0030FB0775
:100CF00031300A128A1110210A128A11D92F0230BA
:100D0000F7007A083D3E84007708831380000130A5
:100D1000FA070318FB0A0030FB0732300A128A1167
:100D200010210A128A11D92F0330F7007A083D3EAC
:100D300084007708831380000130FA070318FB0A48
:100D40000030FB0733300A128A1110210A128A116F
:100D5000D92F0A30F7007A083D3E840077088313C4
:100D600080000130FA070318FB0A0030FB0741300E
:100D70000A128A1110210A128A11D92F0430F700A1
:100D80007A083D3E84007708831380000130FA071B
:100D90000318FB0A0030FB0734300A128A111021B5
:100DA0000A128A11D92F0530F7007A083D3E8400D7
:100DB0007708831380000130FA070318FB0A00301C
:100DC000FB0735300A128A1110210A128A11D92F15
:100DD0000630F7007A083D3E8400770883138000D0
:100DE0000130FA070318FB0A0030FB0736300A12FD
:100DF0008A1110210A128A11D92F0B30F7007A08B4
:100E00003D3E84007708831380000130FA07031801
:100E1000FB0A0030FB0742300A128A1110210A1225
:100E20008A11D92F0730F7007A083D3E84007708F1
:100E3000831380000130FA070318FB0A0030FB0718
:100E400037300A128A1110210A128A11D92F08305C
:100E5000F7007A083D3E8400770883138000013054
:100E6000FA070318FB0A0030FB0738300A128A1110
:100E700010210A128A11D92F0930F7007A083D3E55
:100E800084007708831380000130FA070318FB0AF7
:100E90000030FB0739300A128A1110210A128A1118
:100EA000D92F0C30F7007A083D3E84007708831371
:100EB00080000130FA070318FB0A0030FB074330BB
:100EC0000A128A1110210A128A11D92F0E30F70046
:100ED0007A083D3E84007708831380000130FA07CA
:100EE0000318FB0A0030FB072A300A128A1110216E
:100EF0000A128A11D92F7A083D3E8400831380019B
:100F00000130FA070318FB0A0030FB0730300A12E1
:100F10008A1110210A128A11D92F0830FA000030E4
:100F2000FB00D92F0D30F7007A083D3E840077088A
:100F3000831380000130FA070318FB0A0030FB0717
:100F400044300A128A1110210A128A11D92F790805
:100F5000003A03196C2E013A03197F2E033A031944
:100F6000942E013A0319A92E073A0319BE2E013A0D
:100F70000319D32E033A0319E82E013A0319FD2E63
:100F80000F3A0319122F013A0319272F033A0319B5
:100F90003C2F013A0319512F073A0319662F013AE2
:100FA00003197B2F033A03198D2F013A0319922F4E
:100FB000D92F83120313081AD92F4130F800EE30CD
:100FC000F700F70BE12FF80BE12F00004C2ECE01BC
:100FD00083133530840046300A128A11EF200A123A
:100FE0008A114E30FD000030FE00F730FF00463021
:100FF00084000A128A11032183010A128A11EE2B3E
:02400E0071FF40
:00000001FF
