:100000000A128A11E72F00308A000408840A820746
:1000100000344E344F342034543452344934413453
:100020004C34533420344C34453446345434003446
:1000300049344E34563441344C34493444342034F9
:10004000503449344E34213400345B3432345D341E
:1000500045346E3474346534723420345034493449
:100060004E34003441346C34723465346134643459
:1000700079342034733465347434003445344E3468
:100080005434453452342034503449344E343A34A4
:1000900000345B3431345D3453346534743420348B
:1000A000503449344E340034613420347034613477
:1000B0007334733477346F347234643400345634A8
:1000C00041344C34493444342034503449344E346F
:1000D0000034503449344E3420345334453454348D
:1000E00021340034533445345434203450344934AA
:1000F0004E343A3400344C344F3443344B3445346A
:04010000443400344F
:10014A00A528831203134C080A128A114D220800AB
:10015A00831203134A080A128A114D220800640006
:10016A008001840A0406031900340406B5283034D1
:10017A007534033400346F348A34A53496347E08D7
:10018A008A007F088200C4200A128A118000840A29
:10019A0004087D0603190034FF0A0319FE0AC82859
:1001AA00F6007608831203138600051485100515D8
:1001BA000130F0000030F1000A128A1187218312FF
:1001CA00031305110800F60076088312031386004C
:1001DA000510851005150130F0000030F1000A12F3
:1001EA008A1187218312031305110800831603134A
:1001FA0018150C30990018128312031398178316D6
:10020A00031398168312031318160C128C128316F2
:10021A0003138C160B178B1706309F008601FF30CD
:10022A008800803087008312031386010800F900D2
:10023A00F701F8017708790784000A128A11032066
:10024A000A128A110038031908007708790784000E
:10025A000A128A1103200A128A110A128A11D52057
:10026A000A128A110130F7070318F80A0030F80752
:10027A001F29F401F501701C48297208F4070318B4
:10028A00F50A7308F50701300310F20DF30DFF3E6E
:10029A00031D492901300310F10CF00CFF3E031D28
:1002AA00502971087004031D40297508F101F107EE
:1002BA007408F001F00708000F30F0000030F10078
:1002CA000A128A1187210A128A1138300A128A11EF
:1002DA00E8200A128A1108300A128A11E8200A1242
:1002EA008A1101300A128A11E8200A128A1106308C
:1002FA000A128A11E8200A128A110C300A128A118B
:10030A00E82008007108F301F3077008F201F20708
:10031A007308720403190800F401F5017508803A9C
:10032A00FF0081307F02031D9C29003074020318EC
:10033A00AF290130F4070318F50A0030F5077508EC
:10034A00803AFF0081307F02031DAD29003074021C
:10035A00031C9E29FF30F2070318F30AFF30F30744
:10036A008D2983160313071107128712071308141E
:10037A008814081583120313071287120713071626
:10038A00871607170230A2008630A1009930A00014
:10039A00A00BCD29A10BCD29A20BCD2983120313C2
:1003AA000712871207130230A2008630A100993083
:1003BA00A000A00BDE29A10BDE29A20BDE29C73083
:1003CA008316031392000C3083120313970006302E
:1003DA0092000330A2008A30A1005630A000A00B80
:1003EA00F429A10BF429A20BF429FB298A300A1259
:1003FA008A1100220800FC0032307C020318092A04
:10040A003230F6007608FC00F1307C02031C112A17
:10041A00F030F6007608FC007C08F600F701760852
:10042A00F0007708F1000A30F2000030F3000A12F7
:10043A008A113E210A128A117108F901F907700816
:10044A00F801F8077908FB01FB077808FA01FA07AF
:10045A007B08F7007A08F6000310F70CF60C031075
:10046A00F70CF60C76088312031395007A08033901
:10047A00F60004300310F60DFF3E031D3F2A17084D
:10048A00CF39760497007C08F6007608CD0008007C
:10049A0083120313A5004D08023EA0000030031882
:1004AA000130A1002108803AA20080302202031DF7
:1004BA00602A25082002031C742A831203134D089C
:1004CA00FE3EA000FF3003180030A1002108803A48
:1004DA00803C031D722A2008250203180800831293
:1004EA00031325084D0203189A2A4D08A000200874
:1004FA00A300250823020318BC2A23080A128A111A
:10050A0000220A128A111A3083120313A100F8304A
:10051A00A000A00B8E2AA10B8E2A000003308312A2
:10052A000313A0002008A3077E2A4D0825020318FA
:10053A00BC2A4D08A0002008A4002408250203189C
:10054A00BC2A24080A128A1100220A128A111A30B5
:10055A0083120313A100F830A000A00BB22AA10B4A
:10056A00B22A0000033083120313A402A22A250828
:10057A000A128A1100220A128A1103308312031303
:10058A00A2008A30A1005630A000A00BCA2AA10BF3
:10059A00CA2AA20BCA2AD12A0800013083120313DD
:1005AA00A9000030AA00AB01AC012C08803AFF0078
:1005BA0080307F02031DE32A08302B020318082B20
:1005CA00831203132B08353E840083130008A60008
:1005DA002B083D3E8400000826060319F72AA901C4
:1005EA00AA01082B0130AB070318AC0A0030AC078C
:1005FA002C08803AFF0080307F02031D062B08304A
:10060A002B02031CE52A831203132A08290403195F
:10061A005B2B01300A128A11E8200A128A1157301C
:10062A000A128A111C210A128A11831203134E100C
:10063A000A128A11AD200A128A11831203138C1E20
:10064A002B2B0A128A11A6200A128A114D30831204
:10065A000313A8001930A7009A30A600A60B332B63
:10066A00A70B332BA80B332B3A2B0A128A11A6207D
:10067A000A128A110A128A1161210A128A11803019
:10068A000A128A11E8200A128A1141300A128A11C2
:10069A001C210A128A11C0300A128A11E8200A1291
:1006AA008A111D300A128A111C210800FF30831298
:1006BA000313C8070318C90AFF30C90701300A1211
:1006CA008A11E8200A128A1110300A128A111C2192
:1006DA000A128A11831203134E1449084804031D8F
:1006EA00080001300A128A11E8200A128A11013020
:1006FA000A128A111C210A128A1106308312031364
:10070A00A8001330A700B130A600A60B8A2BA70BAE
:10071A008A2BA80B8A2B912B831203130C1E912B65
:10072A00313099000330A7009730A600A60B9B2B07
:10073A00A70B9B2BA02B831203130C1EA02B0A3092
:10074A0099000330A7009730A600A60BAA2BA70B87
:10075A00AA2BAF2B0A128A11A520080083120313B1
:10076A00B001B101831203133108803AFF008030CF
:10077A007F02031DC22B083030020318F02C8312AB
:10078A000313081EB72B0D30AE00FB30AD00AD0BC6
:10079A00CC2BAE0BCC2BD12B8312031308080F39A9
:1007AA00AD002D08AF00BF2C3008353E84008313FE
:1007BA008001800A0130B0070318B10A0030B1077E
:1007CA002A300A128A11D5200A128A11E22C023022
:1007DA0083120313AD003008353E84002D088313BD
:1007EA0080000130B0070318B10A0030B1072A307F
:1007FA000A128A11D5200A128A11E22C03308312B6
:10080A000313AD003008353E84002D0883138000A1
:10081A000130B0070318B10A0030B1072A300A12B2
:10082A008A11D5200A128A11E22C0430831203138A
:10083A00AD003008353E84002D0883138000013056
:10084A00B0070318B10A0030B1072A300A128A1118
:10085A00D5200A128A11E22C053083120313AD0047
:10086A003008353E84002D08831380000130B0071C
:10087A000318B10A0030B1072A300A128A11D520AA
:10088A000A128A11E22C063083120313AD003008D3
:10089A00353E84002D08831380000130B007031809
:1008AA00B10A0030B1072A300A128A11D5200A1279
:1008BA008A11E22C073083120313AD003008353E4B
:1008CA0084002D08831380000130B0070318B10A91
:1008DA000030B1072A300A128A11D5200A128A1169
:1008EA00E22C083083120313AD003008353E840031
:1008FA002D08831380000130B0070318B10A0030B5
:10090A00B1072A300A128A11D5200A128A11E22C5A
:10091A00093083120313AD003008353E84002D08D8
:10092A00831380000130B0070318B10A0030B10701
:10093A002A300A128A11D5200A128A11E22C83124D
:10094A0003133008353E8400831380010130B00759
:10095A000318B10A0030B1072A300A128A11D520C9
:10096A000A128A11E22C083083120313B0000030F5
:10097A00B100E22C2F08003A0319D92B013A0319C6
:10098A00EC2B033A0319032C063A03191A2C013AE1
:10099A000319312C033A0319482C0E3A03195F2C18
:1009AA00013A0319762C033A03198D2C073A0319D5
:1009BA00A42C033A0319B82CE22C83120313081A45
:1009CA00E22C4130AE00EE30AD00AD0BEA2CAE0B9E
:1009DA00EA2C0000B72B0A128A11D222080006302C
:1009EA00831603139F00850186018701FF30880063
:1009FA000A128A1161210A128A1180300A128A1196
:100A0A00E8200A128A1141300A128A111C210A129C
:100A1A008A11C0300A128A11E8200A128A111D307E
:100A2A000A128A111C210A128A110A128A11B62183
:100A3A000A128A110A128A11FB200A128A110A1250
:100A4A008A11A6200A128A11831203138C1E852D7D
:100A5A00981C312D181218161A08B2003208C5004F
:100A6A004508413A031D5F2D0A128A11A6200A126F
:100A7A008A110A128A1161210A128A1180300A1215
:100A8A008A11E8200A128A1173300A128A111C216B
:100A9A000A128A11831203138C1E4F2D981C572D8C
:100AAA00181218161A08B2003208C5004508423A48
:100ABA00031D4F2D4508423A031D852D0A128A113E
:100ACA00AD200A128A110A128A1161210A128A11A8
:100ADA0080300A128A11E8200A128A1141300A1259
:100AEA008A111C210A128A11C0300A128A11E820BE
:100AFA000A128A111D300A128A111C210A128A113D
:100B0A00831203134E1C9A2D01300A128A11E8200F
:100B1A000A128A1136300A128A111C210A128A1103
:100B2A000A128A11B3230A128A1183120313081EA6
:100B3A00292D0330B4008A30B3005630B200B20B0C
:100B4A00A42DB30BA42DB40BA42DAB2D8312031328
:100B5A0008080F39B2003208FD00081AB22DFD0844
:100B6A00031D312ECE1CE72D01300A128A11E8200E
:100B7A000A128A1180300A128A11E8200A128A118E
:100B8A002A300A128A111C210A128A11C0300A124A
:100B9A008A11E8200A128A114C300A128A111C2181
:100BAA000A128A11063083120313B4001330B300F9
:100BBA00B130B200B20BDF2DB30BDF2DB40BDF2D3A
:100BCA00E62D132E01300A128A11E8200A128A1120
:100BDA006A300A128A111C210A128A110A128A110F
:100BEA0047260A128A1101300A128A11E8200A12CB
:100BFA008A1161300A128A111C210A128A110630DE
:100C0A0083120313B4001330B300B130B200B20B35
:100C1A000C2EB30B0C2EB40B0C2E132E0A128A11A7
:100C2A0061210A128A1180300A128A11E8200A12F6
:100C3A008A1141300A128A111C210A128A11C03003
:100C4A000A128A11E8200A128A111D300A128A1120
:100C5A001C210A128A11292D7D08013A031D292D0A
:100C6A0001300A128A11E8200A128A1136300A1251
:100C7A008A111C210A128A110A128A11B3230A1232
:100C8A008A11292DFA01FB0183120313CE147B0862
:100C9A00803AFF0080307F02031D552E08307A0209
:100CAA000318080083120313081E4C2E0D30F80097
:100CBA00FB30F700F70B5F2EF80B5F2E642E8312C2
:100CCA00031308080F39F7007708F900A72F7A08E5
:100CDA003D3E840083138001800A0130FA0703181D
:100CEA00FB0A0030FB0731300A128A11D5200A129A
:100CFA008A11D92F0230F7007A083D3E840077081E
:100D0A00831380000130FA070318FB0A0030FB073F
:100D1A0032300A128A11D5200A128A11D92F0330C9
:100D2A00F7007A083D3E840077088313800001307B
:100D3A00FA070318FB0A0030FB0733300A128A113C
:100D4A00D5200A128A11D92F0A30F7007A083D3EB7
:100D5A0084007708831380000130FA070318FB0A1E
:100D6A000030FB0741300A128A11D5200A128A1173
:100D7A00D92F0430F7007A083D3E840077088313A0
:100D8A0080000130FA070318FB0A0030FB073430F1
:100D9A000A128A11D5200A128A11D92F0530F700B2
:100DAA007A083D3E84007708831380000130FA07F1
:100DBA000318FB0A0030FB0735300A128A11D520C6
:100DCA000A128A11D92F0630F7007A083D3E8400AC
:100DDA007708831380000130FA070318FB0A0030F2
:100DEA00FB0736300A128A11D5200A128A11D92F26
:100DFA000B30F7007A083D3E8400770883138000A1
:100E0A000130FA070318FB0A0030FB0742300A12C6
:100E1A008A11D5200A128A11D92F0730F7007A08C9
:100E2A003D3E84007708831380000130FA070318D7
:100E3A00FB0A0030FB0737300A128A11D5200A1242
:100E4A008A11D92F0830F7007A083D3E84007708C6
:100E5A00831380000130FA070318FB0A0030FB07EE
:100E6A0038300A128A11D5200A128A11D92F09306C
:100E7A00F7007A083D3E840077088313800001302A
:100E8A00FA070318FB0A0030FB0739300A128A11E5
:100E9A00D5200A128A11D92F0C30F7007A083D3E64
:100EAA0084007708831380000130FA070318FB0ACD
:100EBA000030FB0743300A128A11D5200A128A1120
:100ECA00D92F0E30F7007A083D3E84007708831345
:100EDA0080000130FA070318FB0A0030FB072A30AA
:100EEA000A128A11D5200A128A11D92F7A083D3E90
:100EFA008400831380010130FA070318FB0A0030CB
:100F0A00FB0730300A128A11D5200A128A11D92F0A
:100F1A000830FA000030FB00D92F0D30F7007A08AC
:100F2A003D3E84007708831380000130FA070318D6
:100F3A00FB0A0030FB0744300A128A11D5200A1234
:100F4A008A11D92F7908003A03196C2E013A03192C
:100F5A007F2E033A0319942E013A0319A92E073A50
:100F6A000319BE2E013A0319D32E033A0319E82EA8
:100F7A00013A0319FD2E0F3A0319122F013A0319E8
:100F8A00272F033A03193C2F013A0319512F073A25
:100F9A000319662F013A03197B2F033A03198D2F80
:100FAA00013A0319922FD92F83120313081AD92F42
:100FBA004130F800EE30F700F70BE12FF80BE12F84
:100FCA0000004C2ECE0183133530840046300A12BD
:100FDA008A11B4200A128A114E30FD000030FE0038
:100FEA00BC30FF00463084000A128A11C8208301EF
:060FFA000A128A11F42C1A
:02400E0071FF40
:00000001FF
