:060000000A128A11FC2F18
:100F200019308316031399001812831203139817AC
:100F30001813831603131815831203131816831638
:100F4000031386018312031386018C1EA52F1A0832
:100F5000F000F1017008F4007108F50030307406FB
:100F60007504031DB52F3F30F32F3130740675041F
:100F7000031DBC2F0630F32F323074067504031D99
:100F8000C32F5B30F32F333074067504031DCA2F53
:100F90004F30F32F343074067504031DD12F6630A3
:100FA000F32F353074067504031DD82F6D30F32FE1
:100FB000363074067504031DDF2F7D30F32F373074
:100FC00074067504031DE62F0730F32F38307406BE
:100FD0007504031DED2F7F30F32F3930740675042F
:100FE000031DF72F6F30F2000030F300F92FF201EC
:100FF000F30172088600A52F83010A128A11902F2F
:00000001FF
