:060000000A128A11FC2F18
:100EF6000A128A11892783160313111408000A128D
:100F06008A11892783160313111508008316031304
:100F160011081F3903191419892F0800F0000A1245
:100F26008A11892770088312031393000800831619
:100F360003138715071628308312031394008316AC
:100F46000313910194010930930008007108F3011D
:100F5600F3077008F201F207730872040319BD2F34
:100F6600FF30F2070318F30AFF30F3077308720421
:100F7600031DB32FF401F5017508803AFF00933085
:100F86007F02031DC82F8830740203180800013041
:100F9600F4070318F50A0030F507BF2FFF30831654
:100FA600031388000A128A119A270A128A110A1252
:100FB6008A117B270A128A1110300A128A11912788
:100FC6000A128A118312031308080A128A1191273A
:100FD6000A128A110A128A1182270A128A11C83045
:100FE600F0000030F1000A128A11A9270A128A11AC
:0A0FF600DA2F83010A128A11D12FAD
:00000001FF
