:060000000A128A11FC2F18
:100E5A000A128A113B2783160313111408000A1277
:100E6A008A113B27831603131115080083160313EF
:100E7A0011081F39031914193B2F0800F0000A1230
:100E8A008A113B2770088312031393000800831604
:100E9A000313871507162830831203139400831649
:100EAA00031391019401093093000800F1000A121A
:100EBA008A113B270A128A118316031391150A1203
:100ECA008A113B270A128A11831203131308F000AE
:100EDA007008F2000A128A113B270A128A11F108D5
:100EEA00031D7B2F8316031391167E2F831603137C
:100EFA0091121116720808007108F301F3077008BD
:100F0A00F201F207730872040319952FFF30F207F2
:100F1A000318F30AFF30F30773087204031D8B2FBB
:100F2A00F401F5017508803AFF0093307F02031D32
:100F3A00A02F88307402031808000130F407031840
:100F4A00F50A0030F507972F8316031386018312DB
:100F5A0003138601FF308316031388000A128A11CD
:100F6A004C270A128A110A128A112D270A128A118B
:100F7A0010300A128A1143270A128A1183120313A4
:100F8A0008080A128A1143270A128A110A128A11B8
:100F9A0034270A128A11C830F0000030F1000A1210
:100FAA008A1181270A128A110A128A112D270A1216
:100FBA008A1111300A128A1143270A128A11003043
:100FCA000A128A115B270A128A11831203138600F6
:100FDA000A128A1134270A128A11C830F000003026
:100FEA00F1000A128A1181270A128A11B82F830185
:060FFA000A128A11A92F62
:00000001FF
