:060000000A128A11FC2F18
:100F4E00FF30831603138600870183120313061ED8
:100F5E00CF2F06080F39F0007008F100D02F0130A6
:100F6E00CD2F0230CD2F0330CD2F0430CD2F0530B5
:100F7E00CD2F0630CD2F0730CD2F0830CD2F093095
:100F8E00CD2F0A30CD2F0B30CD2F0C308700D02F28
:100F9E008701061EF92F7108003A0319B62F013A80
:100FAE000319B82F033A0319BA2F063A0319BC2FA7
:100FBE00013A0319BE2F033A0319C02F0E3A031933
:100FCE00C22F013A0319C42F033A0319C62F063A4A
:100FDE000319C82F013A0319CA2F033A0319CC2F4C
:100FEE00CF2FD02F0A128A11002883010A128A11DC
:020FFE00A72F1B
:02400E0071FF40
:00000001FF
