:060000000A128A11FC2F18
:100EE80019308316031399001812831203139817E5
:100EF80083160313181318159816FF3086008312EB
:100F0800061E832F83160313981C862F0A128A1134
:100F180096270A128A117008831203139900061E75
:100F2800832F932F8312031306080F39F200F3015E
:100F38007208F6007308F70077087604031DA62FD9
:100F48003130F22F013076067704031DAD2F323091
:100F5800F22F023076067704031DB42F3330F22FB8
:100F6800043076067704031DBB2F3430F22F05308A
:100F780076067704031DC22F3530F22F0630760629
:100F88007704031DC92F3630F22F08307606770410
:100F9800031DD02F3730F22F093076067704031D52
:100FA800D72F3830F22F0A3076067704031DDE2F4C
:100FB8003930F22F0C3076067704031DE52F2A30DE
:100FC800F22F0D3076067704031DEC2F3030F22F08
:100FD8000E3076067704031DF52F2330F400003019
:100FE800F5007508F101F1077408F001F007080031
:080FF80083010A128A11742F13
:00000001FF
