:060000000A128A11122809
:10000800FE00030EF1000408F2000A08F300831250
:1000180003137F08F4000A128A1119280A128A1198
:10002800152883010A128A1176288B131412941B3F
:100038001F28141F26281308F0007008F5009413D1
:100048001413141683160313941E14193B288312D1
:1000580003131308F0007008F50083160313141C2B
:100068003128831203131308860014165028941E8F
:10007800141D5028831203131308F0007008F500AC
:10008800831603131410831203130808930014161D
:100098008316031314184C2883128C118B177408B9
:1000A800FF0073088A0072088400710E8300FE0E38
:1000B8007E0E0900F60083160313871507163630DF
:1000C80083120313940001308316031391008030C8
:1000D8009400760893008C15831203138C110B1768
:1000E8008B170800831603138601831203138601F6
:1000F800FF3083160313880010300A128A115E201D
:060108000A128A1186288C
:00000001FF
