:060000000A128A11122809
:10000800FE00030EF1000408F2000A08F300831250
:1000180003137F08F4000A128A11062A0A128A11A9
:100028001528F801B801B90183133830FD000230F2
:10003800FE005730FF00313084000A128A114A222C
:1000480083010A128A11282883120313A901AA011D
:100058000F308316031386008701FF308800C430F1
:1000680081000B168B108B160B118B170230831225
:100078000313AD000030AE000430AF000030B00014
:100088000A128A11C7210A128A1131300A128A11FA
:10009800A4210A128A11C0300A128A1120220A12D7
:1000A8008A11831203132D08303E0A128A11332253
:1000B8000A128A11C1300A128A1120220A128A11E0
:1000C800831203132F08303E0A128A1133220A12B0
:1000D8008A1183120313AB01AC0183120313081EA8
:1000E8002429C0300A128A1120220A128A11831286
:1000F80003132D08303E0A128A1133220A128A117C
:10010800C1300A128A1120220A128A11831203139B
:100118002F08303E0A128A1133220A128A118312DA
:10012800031308080F39A8002808B90039080D3A40
:10013800031DA028B801B80AB808031D24293908E6
:100148000C3A031DDC282E08803AFF0080307F021D
:10015800031DB02802302D02031CC6288312031386
:100168003008803AFF0080307F02031DBD2804302C
:100178002F02031CC62883120313AF01B001AD017F
:10018800AE0106290930831203132F063004031D1C
:10019800D628AF01B0010130AD070318AE0A003010
:1001A800AE0706290130AF070318B00A0030052949
:1001B80039080E3A031D06292E082D04031DF128BF
:1001C80030082F04031DF1280430AF000030B000C0
:1001D8000230AD000030AE00062930082F04031DA0
:1001E8000029FF30AD070318AE0AFF30AE0709300B
:1001F800AF000030B0000629FF30AF070318B00A7F
:10020800FF30B007C1300A128A1120220A128A115F
:10021800831203132F08303E0A128A1133220A125E
:100228008A11C0300A128A1120220A128A118312F6
:1002380003132D08303E0A128A1133220A128A113A
:10024800831203133808013A031D71282E082D0460
:10025800031D3B2930082F04031D3B290430AF0040
:100268000030B0000230AD000030AE005029300838
:100278002F04031D4A29FF30AD070318AE0AFF30CB
:10028800AE070930AF000030B0005029FF30AF078B
:100298000318B00AFF30B007C1300A128A112022B1
:1002A8000A128A11831203132F08303E0A128A1188
:1002B80033220A128A11C0300A128A1120220A1225
:1002C8008A11831203132D08303E0A128A11332231
:1002D8000A128A111F30F5000030F6000A128A113E
:1002E800E7210A128A117128760883120313A101E3
:1002F800A1077508A001A0072108200403198E2969
:10030800FF30A0070318A10AFF30A1072108200425
:10031800031D8429A201A3012308803AFF0083302A
:100328007F02031D9929E8302202031808000130D2
:1003380083120313A2070318A30A0030A307902906
:1003480083120313A500A601A70126082507A40008
:100358002408840083138008031908002608250749
:10036800A40024088400831300080A128A11332287
:100378000A128A11013083120313A6070318A70A69
:100388000030A707A9290130F5000030F6000A124D
:100398008A1178210A128A1138300A128A11202209
:1003A8000A128A1101300A128A1120220A128A11AD
:1003B80006300A128A1120220A128A110E300A12F5
:1003C8008A112022080083120313A001A1018312BD
:1003D80003132108803AF7007608803A7702031D54
:1003E800F729750820020318080078080319EB2973
:1003F800F801013083120313A0070318A10A003083
:10040800A107EB298B138B1C0F2A8B100130F000EE
:100418007008B806142A0B1D142A0B11F801F80AE3
:100428008B177408FF0073088A0072088400710E25
:100438008300FE0E7E0E0900F7007708831203136F
:100448008700861206138617C830F5000030F600BC
:100458000A128A1178218312031386130800F70001
:100468007708831203138700861606138617C83089
:10047800F5000030F6000A128A117821831203135E
:10048800861308007E088A007F08820046220A1226
:100498008A118000840A04087D0603190034FF0AC3
:1004A8000319FE0A4A2A43344F3455344E3454341F
:0404B8003A3400349E
:00000001FF
