:060000000A128A11122809
:10000800FE00030EF1000408F2000A08F300831250
:1000180003137F08F4000A128A117E290A128A1132
:100028001528F801B401B50183133430FD000230FE
:10003800FE002E30FF002D3084000A128A11212282
:1000480083010A128A112828023083120313A90097
:100058000030AA000430AB000030AC000F3083162B
:10006800031386008701FF308800C43081000B1617
:100078008B108B160B118B170A128A11A1210A12E9
:100088008A112D300A128A115B210A128A118312F1
:1000980003132A08A501A5072908A401A4072C0809
:1000A800A701A7072B08A601A6070A128A11E021B3
:1000B8000A128A118312031308080F39A8002808A6
:1000C800B500B408031DE82835080C3A031D9E281E
:1000D8002A08803AFF0080307F02031D752802300D
:1000E8002902031C892802308312031329062A04D3
:1000F800031DE8282C08803AFF0080307F02031D8A
:10010800872804302B020318E828093083120313C8
:100118002B062C04031D9828AB01AC010130A9075C
:100128000318AA0A0030CF280130AB070318AC0A1D
:100138000030D6288312031335080E3A031DE82829
:100148002A08803AFF0080307F02031DAD28013065
:1001580029020318C028831203132A082904031D3F
:10016800E8282C08803AFF0080307F02031DBE2853
:1001780001302B02031CE828831203132C082B04DC
:10018800031DD1280930AB000030AC00FF30A907AF
:100198000318AA0AFF30AA07D728FF30AB070318AD
:1001A800AC0AFF30AC072A08A501A5072908A40155
:1001B800A4072C08A701A7072B08A601A6070A125F
:1001C8008A11E0210A128A11831203133408013AB2
:1001D800031D5E282A082904031DFF282C082B0468
:1001E800031DFF280230A9000030AA000430AB002C
:1001F8000030AC0014292C082B04031D0E290930EB
:10020800AB000030AC00FF30A9070318AA0AFF3082
:10021800AA071429FF30AB070318AC0AFF30AC0754
:100228002A08A501A5072908A401A4072C08A701E5
:10023800A7072B08A601A6070A128A11E0210A12AD
:100248008A111F30F5000030F6000A128A11C12108
:100258000A128A115E28760883120313A101A107E6
:100268007508A001A0072108200403194529FF30BB
:10027800A0070318A10AFF30A10721082004031DC5
:100288003B29A201A3012308803AFF0083307F02A3
:10029800031D5029E8302202031808000130831298
:1002A8000313A2070318A30A0030A30747298312E0
:1002B8000313A500A601A70126082507A400240802
:1002C8008400831380080319080026082507A40062
:1002D80024088400831300080A128A110A220A12C9
:1002E8008A11013083120313A6070318A70A0030E6
:1002F800A70760298B138B1C90298B1008080F39CE
:10030800F0007008B50035080D3A031D9529013035
:10031800F0007008B40695290B1D95290B11F801FA
:10032800F80A8B177408FF0073088A0072088400A3
:10033800710E8300FE0E7E0E09000130F5000030BC
:10034800F6000A128A112F210A128A1138300A126D
:100358008A11F7210A128A1101300A128A11F7212B
:100368000A128A1106300A128A11F7210A128A1112
:100378000E300A128A11F721080083120313A00114
:10038800A101831203132108803AF7007608803A06
:100398007702031DD1297508200203180800780880
:1003A8000319C529F801013083120313A0070318A4
:1003B800A10A0030A107C529C0300A128A11F72105
:1003C8000A128A11831203132408303E0A128A1172
:1003D8000A220A128A11831203132608303E0A12CF
:1003E8008A110A220800F70077088312031387008E
:1003F800861206138617C830F5000030F6000A1278
:100408008A112F218312031386130800F700770837
:10041800831203138700861606138617C830F50063
:100428000030F6000A128A112F2183120313861353
:1004380008007E088A007F0882001D220A128A119D
:100448008000840A04087D0603190034FF0A031992
:10045800FE0A212A43344F3455344E3454343A3446
:0204680000345E
:00000001FF
