:060000000A128A11FC2F18
:100F2E000630831603139F0001308500860183125D
:100F3E000313860183120313051CA12FF001F10187
:100F4E007108803AFF0080307F02031DB02F0330FE
:100F5E0070020318A12F0130831203138600F201D1
:100F6E00F3017308803AFF00A7307F02031DC12FE3
:100F7E00103072020318D42F0130F2070318F30A4F
:100F8E000030F3077308803AFF00A7307F02031D7D
:100F9E00D22F10307202031CC32F8312031386014B
:100FAE00F201F3017308803AFF00A7307F02031DA0
:100FBE00E22F103072020318F52F0130F2070318DA
:100FCE00F30A0030F3077308803AFF00A7307F0260
:100FDE00031DF32F10307202031CE42F0130F007B3
:100FEE000318F10A0030F107A72F83010A128A11A4
:020FFE00972F2B
:00000001FF
