:060000000A128A11EC2F28
:10097400123403343B34123483343A34123403349F
:100984003A347C343E341E34CD34CC343D34F3001C
:10099400F201731CD12C7008F1007108F2070310E6
:1009A400F00D0310F30CF308031DCB2C72080800A0
:1009B4007E088A007F088200DA240A128A118000E5
:1009C400840A04087D0603190034FF0A0319FE0A89
:1009D400DE2CFD01F91FF52CF809F909F80A0319B1
:1009E400F90AFD01FD0A7808F0007908F100F20126
:1009F4008E30FB007B08F3007D08FC007C08F400CB
:100A04000A128A110C257008F8007108F90072089E
:100A1400FA00080073080319142D72087104700495
:100A2400031D272D0030F0000030F1000030F200EB
:100A340008000130F5007508F30701300310F20CCB
:100A4400F10CF00CFF3E031D202DFE30720503193E
:100A5400422D1B2D0130F5007508F3070130F00716
:100A6400003003180130F107003003180130F20799
:100A740001300310F20CF10CF00CFF3E031D3B2D72
:100A8400FF3072050319512D2C2D0130F302013072
:100A94000310F00DF10DF20DFF3E031D4A2DF11F61
:100AA400472D73185B2DFF30F0057F30F105FF30C3
:100AB400F2050310F30C7308F500F601F70110308A
:100AC4000310F50DF60DF70DFF3E031D622D75089D
:100AD400F0047608F1047708F20474080319080096
:100AE400F217080083120313C301C4010030C000CD
:100AF4000030C1000030C2005208A0005308A10019
:100B04005408A200831603131208013EF8000030B3
:100B140003180130F9000A128A11EB240A128A110F
:100B2400780883120313A3007908A4007A08A500A7
:100B34000A128A1119270A128A1183120313200830
:100B4400C0002108C1002208C2004008A3004108D7
:100B5400A4004208A5000030A0008030A10040306D
:100B6400A2000A128A1119270A128A118312031386
:100B74002008B0002108B1002208B2000A128A112C
:100B8400E7250A128A11831203133108C401C4072A
:100B94003008C301C3074408BF004308BE00031064
:100BA400BF0CBE0C0310BF0CBE0C3E0895004308DE
:100BB4000339BE0003300310BE0DFF3E031DDD2DBF
:100BC40003103E0D0C3897000800831203133008FD
:100BD400B4003108B5003208B6000310350D360DE7
:100BE400B7003708BD00BD08031D012E0030B30057
:100BF4000030B2000030B1000030B000080030080E
:100C0400B4003108B5003208B60017300310B60C32
:100C1400B50CB40CFF3E031D082E3408B70037088A
:100C2400B800B117FF30B005FF30B1050030B20590
:100C34003008B9003108BA003208BB00BC018E305C
:100C4400BD02BD1F432E3D08803A8F3E0318332E4C
:100C54000030B3000030B2000030B1000030B0000A
:100C6400080001300310BC0CBB0CBA0CB90CFF3EDD
:100C7400031D342E0130B4003408BD0703195E2E61
:100C8400332E18303D02031C5B2E0030B3000030BD
:100C9400B2000030B1000030B00008000130B400F0
:100CA4000310B90DBA0DBB0DBC0DB40B522E01309F
:100CB400BD02BD08031D502E380803196C2EB90956
:100CC400BA09BB09BC09B90A0319BA0A0319BB0A50
:100CD4000319BC0A3C08B3003B08B2003A08B1004F
:100CE4003908B00008000330831603138600870117
:100CF400831203134F088316031392008312031302
:100D04004608D9004708DA004808DB000C30950093
:100D14002C309700071106309200061CD22E0130A9
:100D2400D7070318D80A0030D8075808803AFF00BC
:100D340080307F02031DA02E03305702031CA62E11
:100D440083120313D701D8018312031357084F3EAC
:100D54008400831300088316031392000330831264
:100D64000313C5004508F00057080A128A11C92464
:100D74000A128A11463E8400831300088312031367
:100D8400D900840A0008DA00840A0008DB000A1289
:100D94008A1174250A128A11831203130618CE2E9F
:100DA400861C8F2E0130D5070318D60A0030D607CB
:100DB400F92EF22E0030D2008030D3003E30F72ED0
:100DC4000030D2000030ED2E0030D2004030ED2E45
:100DD4003330D2007330D3003F30F72ED501D60123
:100DE400CD30D200CC30D3003D30D4000F2F560884
:100DF400003A0319FE2EF02E5508003A0319DB2E93
:100E0400013A0319DC2E033A0319E22E013A0319BD
:100E1400E62E073A0319EA2EF02E0A128A117425D7
:100E24000A128A1183120313861C8F2E142F831225
:100E340003132008A6002108A7002208A800031015
:100E4400270D280DA9002908AA00AA08031D312F7F
:100E54000030A0000030A1000030A20008002308E8
:100E6400A6002408A7002508A8000310270D280DB4
:100E7400A9002908AF00AF08031D472F0030A000C8
:100E84000030A1000030A20008002F087B3EA6001D
:100E94002608AA072008A6002108A7002208A800FF
:100EA40010300310A80CA70CA60CFF3E031D532FF3
:100EB4002608A9002908AF002308A6002408A700D3
:100EC4002508A80010300310A80CA70CA60CFF3EA0
:100ED400031D652F2608A9002908AF068030A60047
:100EE4002608AF05A117A417FF30A305FF30A405FA
:100EF4000030A5050030AB000030AC000030AD0080
:100F04000730A6002608AE00201C962F2308AB0746
:100F1400240803110318240A031DAC072508031130
:100F24000318250A031DAD0701300310A20CA10C00
:100F3400A00CFF3E031D972F01300310A30DA40D39
:100F4400A50DFF3E031D9F2F0130AE02031D862F0A
:100F54000930A6002608AE00201CBE2F2308AB07CC
:100F6400240803110318240A031DAC0725080311E0
:100F74000318250A031DAD0701300310A20CA10CB0
:100F8400A00CFF3E031DBF2F01300310AD0CAC0CB1
:100F9400AB0CFF3E031DC72F0130AE02031DAE2F65
:100FA4002B08F0002C08F1002D08F2002A08A600F6
:100FB4002608F3002F08A7002708F4000A128A1154
:100FC4000C25700883120313A0007108A100720895
:100FD400A2000800D501D601D701D80183135530EA
:100FE400FD000430FE00BA30FF00463084000A12CF
:0C0FF4008A11DE2483010A128A11752E76
:02400E0071FF40
:00000001FF
